:100000000C9481000C94A9000C94A9000C94A900F4
:100010000C94A9000C94A9000C94A9000C94A900BC
:100020000C94A9000C94A9000C94A9000C94620CE7
:100030000C94A9000C94A9000C94A9000C94A9009C
:100040000C94C00B0C94A9000C94300C0C940A0C6A
:100050000C94A9000C94A9000C94A9000C94A9007C
:100060000C941E0D0C94A9004E414E494E49545912
:10007000494E46CDCCCC3D0AD7233C17B7D1387773
:10008000CC2B329595E6241FB14F0A000020410089
:1000900000C84200401C4620BCBE4CCA1B0E5AAED3
:1000A000C59D7400000000240027002A0000000005
:1000B00000250028002B0000000000230026002956
:1000C0000004040404040404040202020202020301
:1000D000030303030301020408102040800102040B
:1000E000081020010204081020000000080002018E
:1000F00000000304070000000000000000003D0EA7
:10010000E11811241FBECFEFD8E0DEBFCDBF13E052
:10011000A0E0B1E0E0EAFFE302C005900D92A83B49
:10012000B107D9F727E0A8EBB3E001C01D92A039D1
:10013000B207E1F710E0C0E8D0E004C02197FE016B
:100140000E94CB1DCF37D107C9F70E9498100C949D
:10015000C31F0C9400004F925F926F927F928F9218
:100160009F92AF92BF92CF92DF92EF92FF920F9346
:100170001F9340914206509143064F5F5F4F60E0EE
:10018000C12CD12C760188248A94982CA82CB12CCF
:1001900080E090E0DC01262F30E0421753078CF11D
:1001A000220F331F220F331FF901EC52FA4F408008
:1001B000518062807380481459046A047B0424F4DB
:1001C00080809180A280B380F901EC52FA4F408088
:1001D000518062807380C414D504E604F70424F4CB
:1001E000C080D180E280F3802C523A4FF901008127
:1001F000118122813381800F911FA21FB31F6F5F76
:10020000CACF88199909AA09BB09BC01CD016C198B
:100210007D098E099F092091300604C09595879528
:10022000779567952A95D2F71F910F91FF90EF90E0
:10023000DF90CF90BF90AF909F908F907F906F9006
:100240005F904F9008950F931F930E94AB006093AF
:1002500044067093450680934606909347060091A6
:100260002006109121062091220630912306601B62
:10027000710B820B930B0E94C71A2091D00530910D
:10028000D1054091D2055091D3050E94261B1F91A4
:100290000F91089596E0899FD0011124A25BBA4F77
:1002A00090967C936E935F9791E091969C93919733
:1002B000E091BB05F091BC059091BA05992339F006
:1002C000309751F0811108C080916A0509943097E8
:1002D00019F05C968C91FACF08958F929F92AF920D
:1002E000BF92FF920F931F93CF93DF93F09050062E
:1002F0002BE02F1508F44CC02091520608E512E0BF
:10030000021B110927FD1395000F111F000F111F6C
:1003100020915106C8E8D0E0C21BD10927FDD39532
:10032000CC0FDD1FCC0FDD1F4E010D2E000CAA08D7
:10033000BB089801012E000C440B550B28193909F4
:100340004A095B09DC010E94271C24EB30E040E0F5
:1003500050E00E94FD1B820E931EA41EB51E8C163B
:100360009D062CF0E801801691060CF4E40122971A
:10037000CC0FDD1F2FB7F8948F2D90E0FC01EE0F0E
:10038000FF1FE80FF91FE75DFA4FD283C1832FBF2C
:10039000DF91CF911F910F91FF90BF90AF909F90F1
:1003A0008F900895833081F028F4813099F0823065
:1003B000A9F008958730A9F08830C9F08430B1F4ED
:1003C000809180008F7D03C0809180008F77809323
:1003D0008000089584B58F7784BD089584B58F7D9E
:1003E000FBCF8091B0008F778093B000089580910B
:1003F000B0008F7DF9CFCF93DF93282F30E0F90144
:10040000E751FF4F8491F901EB52FF4FD491F9016D
:10041000EF53FF4FC491CC23A1F081110E94D20170
:10042000EC2FF0E0EE0FFF1FE954FF4FA591B491C0
:10043000EC91ED2381E090E009F480E0DF91CF9131
:10044000089580E090E0FACF862F0C94FB011F9373
:10045000CF93DF93282F30E0F901E751FF4F8491CC
:10046000F901EB52FF4FD491F901EF53FF4FC491C3
:10047000CC23A9F0162F81110E94D201EC2FF0E0BD
:10048000EE0FFF1FE355FF4FA591B4918FB7F8947E
:10049000EC91111108C0D095DE23DC938FBFDF9162
:1004A000CF911F910895DE2BF8CF862F642F0C94E7
:1004B0002702CF93DF9390E0FC01EB52FF4F249192
:1004C0008F539F4FFC0184918823C9F090E0880FDF
:1004D000991FFC01ED55FF4FA591B491FC01E35527
:1004E000FF4FC591D49161110DC09FB7F8948C91C5
:1004F000209582238C938881282328839FBFDF91B6
:10050000CF910895623051F49FB7F8943C91822FB7
:10051000809583238C93E8812E2BEFCF8FB7F894AF
:10052000EC912E2B2C938FBFEACF862F642F0C9447
:1005300059023FB7F89480917C0490917D04A0917A
:100540007E04B0917F0426B5A89B05C02F3F19F00B
:100550000196A11DB11D3FBFBA2FA92F982F882743
:10056000BC01CD01620F711D811D911D42E0660F1E
:10057000771F881F991F4A95D1F708958F929F92F0
:10058000AF92BF92CF92DF92EF92FF924B015C014C
:100590000E9499026B017C010E9499026C197D09ED
:1005A0008E099F09683E734081059105A8F321E0FB
:1005B000821A9108A108B10888EEC80E83E0D81EFF
:1005C000E11CF11C81149104A104B10429F7FF90EE
:1005D000EF90DF90CF90BF90AF909F908F90089555
:1005E0002FB7F894609178047091790480917A041F
:1005F00090917B042FBF0895CF92DF92EF92FF92EC
:10060000CF938091CA050E94FB018111C6C00E9450
:100610009902C0902606D0902706E0902806F09018
:1006200029066C197D098E099F0960932A0670932B
:100630002B0680932C0690932D060E9499026093BE
:100640002606709327068093280690932906109219
:100650003C06C0E0C12CD12C76018091CB0590E006
:100660004796C817190609F0BCF461E08091C905E6
:100670000E94270260E08091C9050E942702C831CC
:1006800048F48091CA050E94FB01CC0CDD1CEE1CD5
:10069000FF1CC82ACF5FE1CF80E8E826C114D1044F
:1006A000E10491E0F90618F021E02093480620913A
:1006B0004E06222361F04FEF5FEF6FEF70E0DB013A
:1006C000CA018C199D09AE09BF096C017D012091F9
:1006D00024063091250640914206509143064F5F13
:1006E0005F4F24173507D9F510922506109224067E
:1006F000C114D104E104F104F1F020913C062F5F14
:1007000020933C06E0912406F0912506EE0FFF1F92
:10071000EE0FFF1FEC52FA4FC082D182E282F382C9
:1007200080913206882339F080912F068231F0F4CF
:100730008F5F80932F060E94F002609349067093AA
:100740004A0680934B0690934C0610924D0680917A
:100750003C06CF91FF90EF90DF90CF9008952F5FF0
:100760003F4F3093250620932406C2CF0E94AB0052
:1007700060932006709321068093220690932306AF
:1007800010922F061092320681E080933D068091F0
:100790003C068F5F80933C06CECF0E94F002C09053
:1007A0004906D0904A06E0904B06F0904C066C1932
:1007B0007D098E099F09653671058105910518F03F
:1007C00081E080934D0610923C06C1CFCF92DF921C
:1007D000EF92FF92CF9381E08093320610922F0622
:1007E000109240060E94F00220913E0630913F0692
:1007F0006B017C01C20ED31EE11CF11C0E94FC02A5
:10080000C82F8091410681110BC00E94F002C616CC
:10081000D706E806F90620F481E08093400602C07E
:10082000C23061F7CF91FF90EF90DF90CF900895A5
:100830000F931F93CF93DF93C82FD62F86E0C89FC7
:10084000F0011124E25BFA4F11A2878D90A1813053
:100850009105F1F058F082309105F1F1039709F418
:1008600040C0DF91CF911F910F9108956623C9F386
:1008700061E070E08C2F0E944A010E94F0026093B8
:10088000A6057093A7058093A8059093A905E9CFC5
:100890000E94F0020091A6051091A7052091A805DD
:1008A0003091A905AB01BC01401B510B620B730BCE
:1008B0008091B8059091B905B0E0A0E08417950744
:1008C000A607B70748F462E070E08C2FDF91CF9164
:1008D0001F910F910C944A0163E070E0D111C1CFD8
:1008E000F4CF70E060E0F1CF6F927F928F929F9291
:1008F000AF92BF92CF92DF92EF92FF920F931F932E
:10090000CF93DF930E94F0020091AA051091AB05EE
:100910002091AC053091AD05AB01BC01401B510BE2
:10092000620B730B8091B6059091B705B0E0A0E023
:1009300010E084179507A607B70708F0F7C0C0E0D6
:100940008091B405C81760F4E091B005F091B1054D
:10095000EC0FF11D62E080810E945902CF5FF0CF61
:10096000712C812C912C540183948091B5057816BB
:1009700008F05FC0072D10E0E091B205F091B305DB
:10098000E00FF11F61E080810E945902E091B20501
:10099000F091B305E00FF11F60E080810E94270213
:1009A000D501C401072C04C0880F991FAA1FBB1FC3
:1009B0000A94D2F76C017C01E094F094612C809150
:1009C000B4056816F8F4C62DD0E0E091B005F091BA
:1009D000B105EC0FFD1F80810E94FB012496CC0F16
:1009E000DD1FC25BDA4F892B41F4888199818C2904
:1009F0009D29998388836394E2CF888199818E2190
:100A00009F21F7CFE091B205F091B305E00FF11F00
:100A100061E080810E9427028091B2059091B30528
:100A2000080F191F60E0F80180810E945902739439
:100A30009CCFCEE4D5E0FE018FEF9FEF278D30A154
:100A4000232B21F4148E968F858F11A2369625E0E4
:100A5000EA38F20799F7F12C96E0D92E8091B40587
:100A6000F81608F050C0E12C0F2D10E0000F111FF8
:100A70000A5A1A4F2091B505E21608F042C0F80153
:100A8000608171810E2C02C0769567950A94E2F719
:100A9000F29E900111242E0D311DEEE4F5E080E070
:100AA000458D568D2417350709F450C08F5F369653
:100AB0008A30B1F760FF23C0EEE4F5E090E080E01B
:100AC000448D411117C0E091AE05F091AF05E20FE2
:100AD000F31F4081D89EF001D99EF00D1124E25BF6
:100AE000FA4F448F368F258F10A2178E61E00E9437
:100AF000180405C0019636968A30910509F7E394EB
:100B0000B9CFF394ABCF10E089A18111182F2696AD
:100B1000F5E0CA38DF07C1F70E94F0026093AA052A
:100B20007093AB058093AC059093AD05812FDF9159
:100B3000CF911F910F91FF90EF90DF90CF90BF90DA
:100B4000AF909F908F907F906F9008956170CFCFFE
:100B500081E08093BA050E947404882369F0809133
:100B60006F05882349F080916D0590916E0501977E
:100B700019F480916A0508951092BA0580E00895ED
:100B800008950895AF92BF92CF92DF92EF92FF92B5
:100B90000F931F93CF93DF936C017B018B01040FA5
:100BA000151FEB015E01AE18BF08C017D10759F041
:100BB0006991D601ED91FC910190F081E02DC60183
:100BC0000995892B79F7C501DF91CF911F910F917D
:100BD000FF90EF90DF90CF90BF90AF900895FC0111
:100BE000538D448D252F30E0842F90E0821B930B92
:100BF000541710F0CF96089501970895FC01918D38
:100C0000828D981761F0A28DAE0FBF2FB11D5D963A
:100C10008C91928D9F5F9F73928F90E008958FEFDC
:100C20009FEF0895FC01918D828D981731F0828D90
:100C3000E80FF11D858D90E008958FEF9FEF0895E7
:100C4000FC01918D228D892F90E0805C9F4F821B4B
:100C500091098F739927089580E894E00E942006F7
:100C600021E0892B09F420E0822F089580E090E0B4
:100C7000892B29F00E942C0681110C940000089504
:100C8000FC01A48DA80FB92FB11DA35ABF4F2C9101
:100C9000848D90E001968F739927848FA689B789F8
:100CA0002C93A089B1898C91837080648C93938DEF
:100CB000848D981306C00288F389E02D80818F7D92
:100CC00080830895EF92FF920F931F93CF93DF934A
:100CD000EC0181E0888F9B8D8C8D98131AC0E88978
:100CE000F989808185FF15C09FB7F894EE89FF8947
:100CF0006083E889F98980818370806480839FBFE5
:100D000081E090E0DF91CF911F910F91FF90EF90E4
:100D10000895F62E0B8D10E00F5F1F4F0F731127F4
:100D2000E02E8C8D8E110CC00FB607FCFACFE8892F
:100D3000F989808185FFF5CFCE010E944006F1CF71
:100D4000EB8DEC0FFD2FF11DE35AFF4FF0829FB7A3
:100D5000F8940B8FEA89FB8980818062CFCFCF9393
:100D6000DF93EC01888D8823B9F0AA89BB89E889D3
:100D7000F9898C9185FD03C0808186FD0DC00FB679
:100D800007FCF7CF8C9185FFF2CF808185FFEDCFF7
:100D9000CE010E944006E9CFDF91CF9108952091C6
:100DA000F903260F3327331F21323105ECF420914C
:100DB0004204FC0190E080E0243069F082E0089574
:100DC000A091F9032191AC0147525C4FA40FB52FBC
:100DD000B11D2C930196861798F38091F903680F43
:100DE0006093F90380E0089581E008951092420431
:100DF00081E08093410410921C0461E082E10E9432
:100E0000270261E083E10E942702E9EBF0E08081A4
:100E10008E7F808380818D7F808388E48093B8007B
:100E200085E48093BC000895CF93DF9391E0909385
:100E3000D8038823B9F0C091B800D091BA0080914E
:100E4000BC008A7B8093BC0060E082E10E942702A4
:100E500060E083E10E9427020E94F606D093BA0068
:100E6000C093B800DF91CF9108950895E091720486
:100E700080917104E81730F4F0E0E854FC4F808171
:100E800090E008958FEF9FEF089590917204809104
:100E900071042FEF3FEF981748F4E92FF0E0E85482
:100EA000FC4F208130E09F5F90937204C901089548
:100EB0008091710490917204891B990B0895CF92CF
:100EC000DF92EF92FF920F931F93CF93DF937C01FA
:100ED000CB018A0120914804222389F0EB016B01A8
:100EE000C40ED51ECC15DD0569F06991D701ED91D1
:100EF000FC910190F081E02DC7010995F3CF642F9B
:100F00000E94CF06C801DF91CF911F910F91FF90F2
:100F1000EF90DF90CF900895CF93DF931F92CDB7DE
:100F2000DEB76983209148042223F9F020916F04F1
:100F3000203258F021E030E0FC013383228390E03E
:100F400080E00F90DF91CF91089580917004E82F99
:100F5000F0E0E75BFB4F998190838F5F8093700493
:100F600080936F0481E090E0ECCF61E0CE010196C8
:100F70000E94CF06F7CFCF92DF92EF92FF920F93AE
:100F80001F93CF93DF93FC01C48121E02093480499
:100F9000C09369041092700410926F048385682BCB
:100FA0008DE195E00E948C07D0916F04D13208F05A
:100FB00092C00E9499026B017C01809142048111D0
:100FC00065C082E08093420481E0809341048FEF0A
:100FD0008093400410923F04D0933E04A9E4B4E00F
:100FE000EEE1F4E080E0D81385C010921D048091FA
:100FF0001D04CC0FC82BC0931D0480911C048130AC
:1010000009F07CC010921C040E9499026B017C01C3
:1010100080911D048093BB0080914404909145040D
:10102000A0914604B0914704892B8A2B8B2B99F011
:101030000E949902009144041091450420914604B5
:10104000309147046C197D098E099F09061717070F
:1010500028073907E0F18091BC0083FDD9CF85ECEA
:101060008093BC000E9499026B017C018091420434
:10107000823009F445C0809140048F3F61F1809136
:101080004004803241F18091400425C080914404A5
:1010900090914504A0914604B0914704892B8A2B76
:1010A0008B2B09F48ACF0E9499020091440410917D
:1010B000450420914604309147046C197D098E093E
:1010C0009F09061717072807390708F076CF809180
:1010D00043040E9414071092700410926F0410923F
:1010E0004804DF91CF911F910F91FF90EF90DF9017
:1010F000CF9008959D9191938F5F75CF85EEB0CF7E
:101100008091440490914504A0914604B091470415
:10111000892B8A2B8B2B09F4A9CF0E94990200916D
:1011200044041091450420914604309147046C1901
:101130007D098E099F09061717072807390708F048
:1011400095CFC5CF089590E080E008950F931F9349
:10115000CF938C01C62F0E94BB076C2F6460C8011F
:101160000E94BB076C2F6B7FC8010E94BB0783ECFA
:1011700090E00197F1F7CF911F910F9108950F9390
:101180001F93CF93DF938C01D62FC42F607F642BE6
:101190000E94A60880E1D89FB00111246C2BC801E1
:1011A000DF91CF911F910F910C94A60840E061E070
:1011B0008DEB95E00E94BF088BE39FE10197F1F76B
:1011C0000895CF93DF93CDB7DEB728970FB6F89485
:1011D000DEBF0FBECDBF98E0EEE1F1E0DE0111967B
:1011E00001900D929A95E1F79091C505981708F432
:1011F0008FEF90E0880F991F21E030E02C0F3D1F0A
:10120000820F931FFC016081606840E08DEB95E0E8
:1012100028960FB6F894DEBF0FBECDBFDF91CF91F9
:101220000C94BF081F93CF93DF93182FEB010E94FC
:10123000D608812F0E94E1084C815D816881798107
:101240008DEB95E0DF91CF911F910C94C205CF9368
:10125000DF93EB010E94E1084C815D816881798117
:101260008DEB95E0DF91CF910C94C20541E00E9497
:10127000BF0881E090E00895FC0180819181009792
:1012800011F00C946D1E0895FB0101900020E9F708
:101290003197AF01461B570BDC01ED91FC910280A9
:1012A000F381E02D09948F929F92AF92BF920F939A
:1012B0001F93CF93DF93CDB7DEB7A1970FB6F89406
:1012C000DEBF0FBECDBF19A2423008F44AE08E0146
:1012D0000F5D1F4F842E912CB12CA12CA5019401E0
:1012E0000E94661CE62FB901CA01EA3004F5E05DF0
:1012F000D801EE938D01232B242B252B79F790E039
:1013000080E0109729F0BD018DEB95E00E94440923
:10131000A1960FB6F894DEBF0FBECDBFDF91CF917F
:101320001F910F91BF90AF909F908F900895E95CAF
:10133000DFCFCF92DF92EF92FF9297FF18C06B0141
:101340007C0141E06DE28DEB95E00E94BF086627CD
:101350007727CB016C197D098E099F094AE00E940D
:1013600053090196FF90EF90DF90CF9008954AE0E7
:10137000FF90EF90DF90CF900C945309BC018DEB60
:1013800095E00C9444098F929F92AF92BF92CF92B6
:10139000DF92EF92FF920E94FC02882309F456C06C
:1013A0000E94F002AB01BC0180915E0690915F0645
:1013B000A0916006B09161064496A11DB11D8417ED
:1013C0009507A607B70708F041C00E9423016B01EB
:1013D0007C0181E00E94E10880E691E00E94BE0964
:1013E000A7019601C701B6010E94AA1D67E671E038
:1013F00081111AC046015701E894B7F82FEF3FEF6B
:101400004FE75FE7C501B4010E94AA1D811127C003
:101410002FEF3FEF4FE75FE7C501B4010E94C01A0D
:101420001816ECF46BE671E08DEB95E00E94440930
:1014300083E791E00E94BE090E94F00260935E067D
:1014400070935F068093600690936106FF90EF9023
:10145000DF90CF90BF90AF909F908F9008952FEF27
:101460003FEF4FE75FE4C701B6010E94A51D1816C4
:101470001CF46FE671E0D8CF2FEF3FEF4FE75FEC42
:10148000C701B6010E94C01A87FDF3CF20E030E00B
:10149000A901C701B6010E94C01A87FF0AC041E036
:1014A0006DE28DEB95E00E94BF08F7FAF094F7F833
:1014B000F0942DEC3CEC4CE45DE3C701B6010E94D6
:1014C000981C4B015C010E94761D6B017C010E94FF
:1014D000C51A9B01AC01C501B4010E94971C4B01C8
:1014E0005C014AE0C701B6010E94530941E06EE287
:1014F0008DEB95E00E94BF0820E030E040E251E42F
:10150000C501B4010E94261B0E94761D90E080E078
:101510004AE00E9453098CCF0F931F93CF93DF9320
:10152000EC010E9444098C016AE771E0CE010E943F
:101530004409800F911FDF91CF911F910F91089562
:101540000F931F93CF93DF93EC01888199810097CC
:1015500059F02A813B812617370730F081E0DF916F
:10156000CF911F910F9108958B016F5F7F4F0E9464
:10157000F61E009759F0998388831B830A832C8178
:101580003D81232B59F7FC011082E8CF80E0E7CFA3
:101590000F931F93CF93DF9300D0CDB7DEB789832E
:1015A0001A8200918006109181060F5F1F4FB801CB
:1015B0008CE796E00E94A00A8823A1F020917C0687
:1015C00030917D068091800690918106BE016F5F0B
:1015D0007F4F820F931F0E94BC1F109381060093C0
:1015E000800681E00F900F90DF91CF911F910F91B6
:1015F0000895EF92FF920F931F93CF93DF93EC0127
:101600007B018A01BA010E94A00A288139818111D7
:1016100014C02115310519F0C9010E946D1E1982EF
:1016200018821D821C821B821A82CE01DF91CF910B
:101630001F910F91FF90EF9008951D830C83B701C8
:10164000C9010E94BC1FF1CFFC01118210821382DC
:10165000128215821482F6E08C379F0769F0609140
:101660007C0670917D066115710531F04091800610
:10167000509181060C94F90A0895FB010190002015
:10168000E9F73197AF01461B570B0C94F90AFC019F
:10169000118210821382128215821482FB01019042
:1016A0000020E9F73197AF01461B570B0C94F90A5C
:1016B000CF93DF9300D000D000D0CDB7DEB76DE779
:1016C00071E0CE0101960E94470BBE016F5F7F4F14
:1016D00080E00E941209CE0101960E943C0969E84F
:1016E00071E0CE0101960E94470BBE016F5F7F4FF4
:1016F00081E00E942709CE0101960E943C092696AE
:101700000FB6F894DEBF0FBECDBFDF91CF91089525
:1017100085ED8093BC008091440490914504A09194
:101720004604B09147040796A11DB11D23E0B6956C
:10173000A795979587952A95D1F72091BC0024FD10
:1017400003C010924204089540914404509145040E
:101750006091460470914704452B462B472B69F353
:101760000097A105B10541F02AE22A95F1F700C0E2
:101770000197A109B109E1CF809143040C941407AA
:101780001F920F920FB60F9211242F933F938F93B6
:101790009F93AF93BF938091780490917904A09127
:1017A0007A04B0917B043091770423E0230F2D3726
:1017B00058F50196A11DB11D2093770480937804FC
:1017C00090937904A0937A04B0937B0480917C0475
:1017D00090917D04A0917E04B0917F040196A11D9B
:1017E000B11D80937C0490937D04A0937E04B093FC
:1017F0007F04BF91AF919F918F913F912F910F9057
:101800000FBE0F901F90189526E8230F0296A11D7A
:10181000B11DD2CF1F920F920FB60F9211242F93AA
:101820003F934F935F936F937F938F939F93AF9368
:10183000BF93EF93FF9380E894E00E944006FF91EE
:10184000EF91BF91AF919F918F917F916F915F9138
:101850004F913F912F910F900FBE0F901F901895B1
:101860001F920F920FB60F9211242F938F939F9375
:10187000EF93FF93E0919004F09191048081E091C7
:101880009604F091970482FD1BC090818091990489
:101890008F5F8F7320919A04821741F0E091990431
:1018A000F0E0E058FB4F958F80939904FF91EF9102
:1018B0009F918F912F910F900FBE0F901F901895B1
:1018C0008081F4CF1F920F920FB60F9211242F93A5
:1018D0003F934F935F936F937F938F939F93AF93B8
:1018E000BF93CF93DF93EF93FF9380916A04C091EE
:1018F0004D05D0E087FF24C010928500109284002F
:1019000080916A048F5F80936A0480916A04082E34
:10191000000C990B8C179D0724F480916A048C307D
:10192000C4F18091840090918500049680349C4994
:1019300008F47AC08091840090918500049676C066
:1019400080916A04082E000C990B8C179D07C4F631
:10195000E0916A048E2FEE0F990BFC01EE0FFF1F32
:10196000E80FF91FE75DFA4F808186FFC9CFE0914C
:101970006A048E2FEE0F990BFC01EE0FFF1FE80F8C
:10198000F91FE75DFA4F808160E08F730E942702A4
:10199000B7CF2091840030918500E0916A048E2FAA
:1019A000EE0F990BFC01EE0FFF1FE80FF91FE75D2B
:1019B000FA4F81819281820F931F909389008093C7
:1019C0008800E0916A048E2FEE0F990BFC01EE0F58
:1019D000FF1FE80FF91FE75DFA4F808186FF11C0F6
:1019E000E0916A048E2FEE0F990BFC01EE0FFF1FA2
:1019F000E80FF91FE75DFA4F808161E08F730E9465
:101A00002702FF91EF91DF91CF91BF91AF919F910D
:101A10008F917F916F915F914F913F912F910F9097
:101A20000FBE0F901F90189580E49CE99093890059
:101A3000809388008FEF80936A04E3CF1F920F9208
:101A40000FB60F9211242F933F934F935F936F9391
:101A50007F938F939F93AF93BF93EF93FF93809167
:101A6000B900887F803609F44AC0F0F5883209F45D
:101A7000A7C018F5803109F49BC0B8F4882309F495
:101A8000F9C0883009F494C0FF91EF91BF91AF91F4
:101A90009F918F917F916F915F914F913F912F9186
:101AA0000F900FBE0F901F901895883109F488C0D1
:101AB000803251F78093400414C0803409F49DC0F3
:101AC00040F48033B9F38833F9F68093400485EC11
:101AD000B0C0803509F485C0883509F496C08834D3
:101AE00099F60E94880BD0CF883909F48CC038F55C
:101AF000883729F050F4883611F0803729F683E0D2
:101B00008093420410921B0457C0883809F47BC0AC
:101B1000803919F0803809F0B7CF80911B048032EA
:101B200008F071C0E0911B0481E08E0F80931B04CC
:101B30008091BB00F0E0E550FC4F80833DC0803BCE
:101B400039F0E0F4803A09F479C0883A09F09CCF82
:101B500084E0809342041092FA031092F903E0911A
:101B60006D04F0916E0409958091F90381110FC005
:101B700081E08093F9031092D90309C0803C09F4F5
:101B8000A6CF883C09F4A3CF883B09F07DCFE09134
:101B9000FA0381E08E0F8093FA03F0E0E752FC4FE6
:101BA00080818093BB009091FA038091F90329C052
:101BB00080911D048093BB0085EC8093BC0064CFB2
:101BC00090913F0480913E04981758F5E0913F04AE
:101BD00081E08E0F80933F04F0E0E25EFB4F808156
:101BE000E9CFE0913F0481E08E0F80933F04809124
:101BF000BB00F0E0E25EFB4F808390913F04809158
:101C00003E049817C8F285E8D8CFE0913F0481E000
:101C10008E0F80933F048091BB00F0E0E25EFB4FAB
:101C200080838091410481115CCF81E080931C040A
:101C300084EA8093BC001092420426CF85EC809306
:101C4000BC001092420480911B04803230F4E09179
:101C50001B04F0E0E550FC4F108260911B0470E023
:101C6000E0916B04F0916C048BEF93E00995109276
:101C70001B040ACF1092400434CF109283041092B8
:101C8000820488EE93E0A0E0B0E080938404909317
:101C90008504A0938604B09387042AE231E0309350
:101CA00081042093800425EC30E030938D04209350
:101CB0008C0424EC30E030938F0420938E0420ECCD
:101CC00030E0309391042093900421EC30E0309385
:101CD00093042093920422EC30E0309395042093F7
:101CE000940426EC30E030939704209396041092ED
:101CF000990410929A0410929B0410929C041092E2
:101D0000200510921F058093210590932205A09332
:101D10002305B09324058CE391E090931E058093F6
:101D20001D0510921D071092210710922007109296
:101D300022078AE591E090931C0780931B07E7E355
:101D4000F7E02BE137E083E797E0108214821382FB
:101D5000158236968E179F07C1F784E091E0909325
:101D60007E0780937D0780E091E0909380078093C9
:101D70007F0784E0809381078093820748E051E0E9
:101D800050937C0740937B074AE050E050938407D0
:101D90004093830744EF51E05093860740938507B3
:101DA000109289071092880710927707109278078F
:101DB0001092790710927A071092870710921207F3
:101DC000109211074EE451E05093100740930F0713
:101DD00097E29093130790E19093180792E0909305
:101DE000190710921A0740E050E060E87FE3409343
:101DF0008B0650938C0660938D0670938E064093ED
:101E00008F065093900660939106709392061092FD
:101E1000DF061092E0061092E1061092E2061092A0
:101E2000E4061092E3061092E5061092E606109280
:101E3000E7061092E8061092E9061092EA06109260
:101E4000EB061092EC0691E09093ED061092EE06F0
:101E50008093EF068093F0061092F1061092F2063E
:101E60001092F3061092F4061092F5061092F60600
:101E70001092F7061092F8061092F9061092FA06E0
:101E80001092FB061092FC064CE85AE05093FE06B6
:101E90004093FD061092FF061092000740E150E0CB
:101EA0005093020740930107109203071092040712
:101EB0001092050710920607109207071092080764
:101EC0001092090710920A0710920B0710920C0744
:101ED00010920D0710920E078093890685E080937B
:101EE000880686E0EDE1F7E0A0E5B5E001900D920F
:101EF0008A95E1F78AE591E090934F0580934E052E
:101F000084E1E3E2F7E0A6E5B5E001900D928A9561
:101F1000E1F78EE495E046E0F9017C96DC015C9601
:101F200001900D924A95E1F72A5F3F4F069647E0F0
:101F30002735340781F78091730790917407A0913A
:101F40007507B09176078093A6059093A705A09397
:101F5000A805B093A9051092AA051092AB0510929E
:101F6000AC051092AD0588E091E09093AF058093A9
:101F7000AE0584E091E09093B1058093B00580E0D8
:101F800091E09093B3058093B20580918107909181
:101F900082079093B5058093B4058AE090E0909312
:101FA000B7058093B60584EF91E09093B9058093CF
:101FB000B8051092BA051092BC051092BB0510929C
:101FC000C0051092BF058EE491E09093BE0580930A
:101FD000BD0587E28093C105809114078093C205F7
:101FE000809115078093C305809116078093C405DF
:101FF000809117078093C50580E18093C60582E034
:102000008093C7051092C80587E8E8E8F6E0A9ECD8
:10201000B5E001900D928A95E1F780914D058C30E5
:1020200008F082C091E0980F90934D058093500680
:1020300090E0FC01EE0FFF1FE80FF91FE75DFA4F7C
:1020400088EB9BE0928381836CE771E08CE796E0FC
:102050000E94470B10925406109253061092550698
:1020600080E090E0A0E8BFE3809356069093570687
:10207000A0935806B093590610925A0610925B0628
:1020800010925C0610925D0610925E0610925F063A
:10209000109260061092610683E0809362061092AF
:1020A00063061092640610926506109266061092FE
:1020B0006706109268061092690610926A061092DE
:1020C0006B0610926C0610926D0610926E061092BE
:1020D0006F0610927006109271061092720610929E
:1020E000730610927406109275061092760610927E
:1020F0007706109278061092790610927A0610925E
:102100007B066CE771E08CE796E00E943D0B109235
:102110008206109283061092840610928506109211
:1021200086061092870608958FEF809350068CCF15
:10213000CF93DF93CDB7DEB763970FB6F894DEBFCA
:102140000FBECDBF789484B5826084BD84B58160B4
:1021500084BD85B5826085BD85B5816085BD809172
:102160006E00816080936E001092810080918100EA
:1021700082608093810080918100816080938100E2
:10218000809180008160809380008091B1008460A4
:102190008093B1008091B00081608093B000809105
:1021A0007A00846080937A0080917A0082608093C4
:1021B0007A0080917A00816080937A0080917A0021
:1021C000806880937A001092C100E0919004F091B1
:1021D000910482E08083E0919004F0919104108258
:1021E000E0918C04F0918D041082E0918E04F091C6
:1021F0008F0480E1808310929804E0919404F09120
:10220000950486E08083E0919204F09193048081AC
:1022100080618083E0919204F091930480818860D2
:102220008083E0919204F0919304808180688083A0
:10223000E0919204F091930480818F7D808368E91E
:1022400071E080E894E00E948C0A61E082E00E94E4
:10225000590260E082E00E94270261E083E00E9470
:10226000590260E083E00E94270261E08EE00E9454
:10227000590260E08EE00E94270261E08FE00E9438
:10228000590261E08FE00E942702809150068C3055
:1022900008F050C061E081E10E945902E0915006CF
:1022A0008E2F90E0DC01AA0FBB1FA80FB91FA75DFE
:1022B000BA4F8C91807C81618C9310925106109260
:1022C00052062CE08E2F622F0E94BF1D829FB0010C
:1022D000112430E020E0AB01420F531FDA01AA0FB6
:1022E000BB1FA40FB51FA75DBA4F9C9196FD16C0EA
:1022F0002F5F3F4F2C30310571F781110FC01092C5
:10230000800082E08093810010928500109284000A
:10231000B19A80916F00826080936F008E2F90E061
:10232000FC01EE0FFF1FE80FF91FE75DFA4F8081F8
:102330008064808390E080E00E946D0110927B06B3
:1023400010927204109271041092700410926F0433
:102350000E94F60680EC95E090936E0480936D04E5
:1023600081EC95E090936C0480936B041092C2050D
:102370008091C705823018F098E09093C205809351
:10238000C50562E370E080E090E00E94BE026091CB
:10239000C8058DEB95E00E94BB0768EE73E080E016
:1023A00090E00E94BE0260E38DEB95E00E94A608DB
:1023B0000BE416E4C8010197F1F760E38DEB95E0BB
:1023C0000E94A608C8010197F1F760E38DEB95E044
:1023D0000E94A60883E592E00197F1F760E28DEB99
:1023E00095E00E94A6086091C205606240E08DEB16
:1023F00095E00E94BF0884E08093C30540E06CE054
:102400008DEB95E00E94BF080E94D60882E0809381
:10241000C40540E066E08DEB95E00E94BF0840E017
:1024200062E08DEB95E00E94BF088BE39FE101978E
:10243000F1F788E08093C80560E08DEB95E00E949D
:10244000BB076BEA71E0CE0101960E94470BBE010B
:102450006F5F7F4F80E00E941209CE0101960E94BB
:102460003C0962EB71E0CE0101960E94470BBE0170
:102470006F5F7F4F81E00E942709CE0101960E9485
:102480003C0968EB7BE080E090E00E94BE0261E0E6
:102490008091C9050E94590260E08091CA050E949E
:1024A000590281E08093CB0560E08091C9050E94CC
:1024B00027020E94F0026093490670934A068093B7
:1024C0004B0690934C060E94F002603679408105DD
:1024D000910518F40E94FC02F6CF0E94E6031092C8
:1024E0003D06809140068823B9F06CEB71E080E8EE
:1024F00094E00E948C0A0E94D60880E00E94E108C5
:1025000082EE91E00E94BE0981E00E94E1088FEE18
:1025100091E00E94BE09FFCF6CEF71E080E894E08B
:102520000E948C0A90E080E00E94E71B8F3FC1F080
:1025300090E080E00E94E71B8093560681E090E0E7
:102540000E94E71B8093570682E090E00E94E71B01
:102550008093580683E090E00E94E71B8093590621
:1025600020915606309157064091580650915906D1
:102570002093CC053093CD054093CE055093CF05E5
:1025800060E070E080E89FE30E94041D6093D00546
:102590007093D1058093D2059093D3050E94E603F2
:1025A00010925406109253060E94580B80915306C5
:1025B000909154060E9709F083C00E9474048823FA
:1025C00009F43DC1EEE4F5E090E040E0278D30A154
:1025D000215031092230310538F4248D233409F497
:1025E00059C0243409F4982F369615E0EA38F107DB
:1025F00069F7442309F450C081E080935506911196
:1026000050C061E082E00E94270261E08EE00E94FB
:10261000270260E08FE00E9427020E94FC02809166
:102620005306909154068B30910509F429C408F0A3
:10263000E7C38330910509F402C5069709F4CBC4BA
:10264000809187068823C9F00E94F00200918306DA
:10265000109184062091850630918606601B710BCF
:10266000820B930B6C3871058105910530F060E0A9
:1026700083E00E9427021092870680E090E0892B79
:1026800009F494CF0E942C06882309F48FCF0E946E
:1026900000008CCF482FA8CF10925506992309F43B
:1026A000D2C090E080E00E946D0110927B061092F3
:1026B000550610925406109253060E94580BBFC044
:1026C0000E94A805182F882309F4B9C061E083E0AF
:1026D0000E9427020E94F002609383067093840692
:1026E000809385069093860681E080938706E0912B
:1026F0005306F0915406EC30F10508F0A0C0ED57F8
:10270000FC4E0C94CB1D8F13FA13CA15FA151F1427
:102710001016EF162D1471149F143B15BE151133AE
:10272000F9F487E090E090935406809353066CE7A9
:1027300071E08CE796E00E943D0B6BE172E0CE0108
:1027400001960E94470BBE016F5F7F4F80E00E94A1
:102750001209CE0101960E943C0966E272E020C097
:10276000123369F582E090E090935406809353060B
:102770006CE771E08CE796E00E943D0B68E272E046
:10278000CE0101960E94470BBE016F5F7F4F80E034
:102790000E941209CE0101960E943C0966E372E094
:1027A000CE0101960E94470BBE016F5F7F4F81E013
:1027B0000E942709CE0101960E943C0940C01234B4
:1027C000F1F581E090E0909354068093530663E422
:1027D00072E0CE0101960E94470BBE016F5F7F4FF2
:1027E00080E00E941209CE0101960E943C0961E539
:1027F00072E0D6CF113401F58AE590E00E946D01B8
:1028000081E080937B068EE090E090935406809365
:1028100053066EE572E0CE0101960E94470BBE01A1
:102820006F5F7F4F80E00E941209CE0101960E94E7
:102830003C096AE672E0B4CF143409F43ACF8091CF
:1028400055068111DECE60E082E00E94270260E042
:102850008EE00E94270261E0DDCE812F012E000C68
:10286000990BC0970A97C0F4812F0E94C80A6BE7A2
:1028700072E0CE0101960E94470BBE016F5F7F4F51
:1028800081E00E942709CE0101960E943C09CE01F9
:1028900001960E94240B88CF113471F680917C063A
:1028A00090917D060097C9F00E94E9186093630635
:1028B0007093640680936506909366066CE771E0FA
:1028C0008CE796E00E943D0B88E090E090935406E0
:1028D000809353066CE872E032CF60E070E0CB0189
:1028E000E5CF812F012E000C990BC0970A9708F4B1
:1028F000BBCF113409F0A0CF80917C0690917D066A
:102900000097C9F00E94E918609367067093680603
:102910008093690690936A066CE771E08CE796E015
:102920000E943D0B89E090E09093540680935306FB
:1029300066E972E004CF60E070E0CB01E5CF812F63
:10294000012E000C990BC0970A9708F48DCF113413
:1029500009F072CF80917C0690917D06812C912C9C
:102960005401009721F00E94E9184B015C0180920C
:102970006B0690926C06A0926D06B0926E06209146
:10298000630630916406409165065091660660E8E2
:102990007EEE86E390E00E94AF1D6B017C012091EA
:1029A0006706309168064091690650916A06A0E674
:1029B000BAEE0E941C1CC60ED71EE81EF91EA8EE19
:1029C000B3E0A50194010E941C1CC60ED71EE81E90
:1029D000F91EC0926F06D0927006E0927106F092D6
:1029E00072066CE771E08CE796E00E943D0B8AE08E
:1029F00090E0909354068093530660EA72E0CE0113
:102A000001960E94470BBE016F5F7F4F80E00E94DE
:102A10001209CE0101960E943C0981E00E94E10862
:102A200060916306709164068091650690916606D8
:102A30000E9499098FEA92E00E94BE0960916706A0
:102A4000709168068091690690916A060E949909C2
:102A500082EB92E00E94BE0960916B0670916C0659
:102A600080916D0690916E060E94990988E693E028
:102A70000E94BE09E4CE113409F076C065EB72E025
:102A8000CE0101960E94470BBE016F5F7F4F80E031
:102A90000E941209CE0101960E943C0983E08093B6
:102AA000620680916206882309F448C01B861A8654
:102AB0001D861C861F861E864AE0BE016F5F7F4F03
:102AC00090E00E942519BE016F5F7F4FCE010A96EC
:102AD0000E943D0BBE01665F7F4F81E00E94270987
:102AE000CE010A960E943C0968EE73E080E090E017
:102AF0000E94BE028091620681508093620680919E
:102B00008706882371F20E94F002009183061091DB
:102B100084062091850630918606601B710B820B1E
:102B2000930B6C3871058105910508F4BACF60E00C
:102B300083E00E94270210928706B3CF81E0809342
:102B400055060E94F002609373067093740680939A
:102B50007506909376062BE030E030935406209370
:102B600053060E94D6086BCE143409F068CE6CE789
:102B700071E08CE796E00E943D0B9BCD143409F088
:102B80005ECE4DE050E050935406409353061092B1
:102B9000550655CE113369F483E090E090935406C6
:102BA000809353066CE771E08CE796E00E943D0B42
:102BB00046CE1233C9F6E6E0F0E0F0935406E09317
:102BC00053066CE771E08CE796E00E943D0B64ECE5
:102BD00072E0CE0101960E94470BBE016F5F7F4FEE
:102BE00080E00E941209CE0101960E943C0965ED29
:102BF00072E0D6CD65EE72E0CE0101960E94470BE1
:102C0000BE016F5F7F4F80E00E941209CE010196E6
:102C10000E943C096CED75E080E090E00E94BE02ED
:102C2000812F012E000C990BC0970A9708F41CCE37
:102C30001E3209F419CE113409F09DC000914206EC
:102C4000109143060E5F1F4F109225061092240626
:102C5000101611066CF40E94FC028091CA050E94B5
:102C6000FB01892BA9F70E94230101501109F0CF24
:102C700080917C0690917D06C12CD12C7601009725
:102C800021F00E94E5186B017C010E942301209134
:102C9000CC053091CD054091CE055091CF050E94D5
:102CA000261BA70196010E94041D6B017C01C092A6
:102CB000CC05D092CD05E092CE05F092CF05AC01C7
:102CC0009B0160E070E080E89FE30E94041D609338
:102CD000D0057093D1058093D2059093D305C0920F
:102CE0005606D0925706E0925806F092590686E5AD
:102CF000E82E86E0F82E10E000E0F701D1907F0189
:102D0000C8010E94E71BD81621F06D2DC8010E9452
:102D1000EF1B0F5F1F4F0430110579F76CE771E06F
:102D20008CE796E00E943D0B63EF72E0CE010196C6
:102D30000E94470BBE016F5F7F4F80E00E94120927
:102D4000CE0101960E943C096AEF72E0CE01019625
:102D50000E94470BBE016F5F7F4F81E00E94120906
:102D6000CE0101960E943C096CED75E080E090E098
:102D70000E94BE029ECC143409F061CD6CE771E074
:102D80008CE796E00E943D0B109254061092530679
:102D900066E073E0CE0101960E94470BBE016F5FB3
:102DA0007F4F80E00E941209CE0101960E943C09EB
:102DB00062E173E0CE0101960E94470BBE016F5F96
:102DC0007F4F81E00E942709CE0101960E943C09B5
:102DD0006CED75E080E090E00E94BE026ECC113494
:102DE00009F0C2CE6CE771E08CE796E00E943D0BE3
:102DF00081E08093320610922F0610923D061FCD7F
:102E00008C30910509F4B8C10D9709F019CC60E038
:102E100082E00E94270260E08EE00E9427020E946A
:102E2000D60865E573E0CE0101960E94470BBE010E
:102E30006F5F7F4F80E00E942709CE0101960E94BC
:102E40003C0962E173E0CE0101960E94470BBE018E
:102E50006F5F7F4F81E00E942709CE0101960E949B
:102E60003C096CED75E080E090E00E94BE0210929B
:102E7000550610925406109253060E94580BE0CB50
:102E80000E94F0022B013C01809173069091740620
:102E9000A0917506B091760693018201081B190B6B
:102EA0002A0B3B0BD901C80180906F0690907006E9
:102EB000A0907106B090720688159905AA05BB0509
:102EC00008F08CC0409173045091740460917504B3
:102ED0007091760493018201041B150B260B370BAE
:102EE000B901A801493C51056105710508F473C099
:102EF000881A990AAA0ABB0AC501B40128EE33E070
:102F000040E050E00E94661C69017A01C501B401ED
:102F100020E83EEE46E350E00E94661C288B398B89
:102F20004A8B5B8BC701B60120E13EE040E050E0F8
:102F30000E94661C2CE330E040E050E00E94661CDA
:102F400049015A011901C701B6012CE330E040E004
:102F500050E00E94661C6B017C018B0180E00E94A6
:102F6000E1088CE193E00E94BE09288939892A3062
:102F7000310524F486E292E00E94BE0968897989CD
:102F80008A899B890E9499098EE992E00E94BE0974
:102F90003AE02316310424F486E292E00E94BE094E
:102FA000C501B4010E9499098EE992E00E94BE0910
:102FB0000A30110524F486E292E00E94BE09C7019E
:102FC000B6010E9499094092730450927404609271
:102FD0007504709276040E94C30932CB1092550694
:102FE00060E082E00E94270260E08EE00E942702FB
:102FF0000E94D60880E00E94E10883E293E00E94EC
:10300000BE0981E00E94E10881E393E00E94BE09CD
:1030100067E373E080E894E00E948C0A0E94F0026B
:1030200060937706709378068093790690937A067A
:103030008CE090E0909354068093530601CB8091EE
:103040006206882309F452C06DE573E0CE01019653
:103050000E94470BBE016F5F7F4F80E00E94120904
:10306000CE0101960E943C096AE673E0CE0101960A
:103070000E94470BBE016F5F7F4F81E00E942709CE
:10308000CE0101960E943C096091620670E090E0DA
:1030900080E04AE00E94530968EE73E080E090E02F
:1030A0000E94BE02809162068150809362068091E8
:1030B0008706882321F20E94F00200918306109176
:1030C00084062091850630918606601B710B820B69
:1030D000930B6C3871058105910508F4B0CF60E061
:1030E00083E00E94270210928706A9CF83E0809395
:1030F00062060E94D60880E00E94E10884E793E01F
:103100000E94BE0981E00E94E10883E893E00E94EA
:10311000BE090E94A8058134E1F70E94E60366E932
:1031200073E0CE0101960E94470BBE016F5F7F4F97
:1031300080E00E941209CE0101960E943C0960E6DF
:1031400071E0CE0101960E94470BBE016F5F7F4F79
:1031500081E00E942709CE0101960E943C0985E08A
:1031600090E090935406809353066CE771E08CE7EF
:1031700096E00E943D0B64CA0E94F002009177061F
:10318000109178062091790630917A06601B710BB8
:10319000820B930B613D77408105910508F450CA7D
:1031A00065EA73E080E894E00E948C0A109255066C
:1031B00060E082E00E94270260E08EE00E94270229
:1031C00058CE8CE796E00C943C09662777270C9440
:1031D0003F191F93FC0199278827BC01E89411919E
:1031E0001032E9F3193010F01E30C8F31B3251F0E1
:1031F0001D3249F4689406C00E941019610F711DB8
:10320000811D911D119110531A30B0F33EF4909529
:103210008095709561957F4F8F4F9F4F1F910895B7
:10322000592F482F372F262F660F771F881F991F7A
:10323000660F771F881F991F620F731F841F951FCA
:10324000660F771F881F991F0895BB27FB0155271D
:10325000AA27880F991FAA1FA41710F0A41B8395F3
:103260005051B9F7A05DAA3308F0A95DA19300976A
:1032700079F7B111B1931192CB010C94B01AB0E06F
:10328000A0E0E5E4F9E10C94351C5C017B016115DB
:10329000710519F0DB018D939C9385010F5F1F4F22
:1032A000F501D0818D2F90E00E948F1A6C01892B3F
:1032B000B9F5DD32B9F50F5F1F4FD5011196DC91DD
:1032C000C1E05801F1E0AF1AB10843E050E060E717
:1032D00070E0C5010E94981A892B69F5680182E0A7
:1032E000C80ED11C45E050E06BE670E0C6010E94BC
:1032F000981A892B21F4680197E0C90ED11CE114BA
:10330000F10419F0D701CD92DC9260E070E080E822
:103310009FEFC111FFC060E070E080E89FE7FAC056
:103320005801BBCFDB3229F485010E5F1F4FF50139
:10333000D181C0E0C6CF43E050E068E670E0C5014F
:103340000E94981A892BE9F0F80110E000E020E0D3
:1033500030E0A9015F01B0ED8B2E8D0E89E088155C
:10336000C8F19C2E689491F88C2F8870C2FF16C00B
:10337000811102C00F5F1F4F3196D501DC91C92D1D
:10338000E9CFE114F10429F00E5F1F4FF70111831B
:10339000008360E070E080EC9FE7BCC0882311F000
:1033A00001501109A5E0B0E00E941C1C9B01AC017A
:1033B000220F331F441F551F280D311D411D511D64
:1033C000283999E93907490799E15907A8F2C660F0
:1033D0009C2ED2CFAEEF8A1206C0C3FD3CC09C2EFD
:1033E000689493F8C9CFDF7DD534A9F580818D32FB
:1033F00039F4C061DF011296818162E070E006C09D
:10340000DF018B32C1F3119661E070E080535D0102
:10341000A61AB70A8A30F8F4E0E8CE16ECE0DE0629
:103420005CF4B601660F771F660F771FC60ED71EB6
:10343000CC0CDD1CC80ED11C5D01FFEFAF1ABF0A1A
:103440008C9180538A30A8F1C4FF03C0D194C194F9
:10345000D1080C0D1D1DC1FF09C0E114F10431F0AC
:1034600081E0A81AB108D701AD92BC92CA01B90196
:103470000E94C51AC370C33009F490584B015C0117
:1034800020E030E0A9010E94C01A882309F440C05E
:10349000CFE9D0E017FF05C0119501951109C7E8E4
:1034A000D0E06E01B8E1CB1AD10880E2E82EF12C11
:1034B0000FC0D501B1CFFE012591359145915491B1
:1034C0000E191F09C501B4010E94261B4B015C01A6
:1034D000D501C4010E151F0574F72497F594E794E0
:1034E000CC16DD06A9F78A2F880F8B2F881F8F3FF8
:1034F00049F020E030E0A901C501B4010E94C01AE2
:10350000811106C082E290E090938B0780938A0736
:10351000C501B401CDB7DEB7ECE00C94511C91119C
:103520000C94931B803219F089508550C8F7089588
:10353000FB01DC014150504088F08D9181341CF03A
:103540008B350CF4805E659161341CF06B350CF4A6
:10355000605E861B611171F3990B0895881BFCCF87
:10356000DC01FC01672F71917723E1F7329704C0EA
:103570007C916D9370836291AE17BF07C8F3089575
:103580000E94021B08F481E00895E89409C097FBAB
:103590003EF490958095709561957F4F8F4F9F4F2A
:1035A0009923A9F0F92F96E9BB279395F69587956E
:1035B00077956795B795F111F8CFFAF4BB0F11F431
:1035C00060FF1BC06F5F7F4F8F4F9F4F16C08823D8
:1035D00011F096E911C0772321F09EE8872F762F0E
:1035E00005C0662371F096E8862F70E060E02AF04F
:1035F0009A95660F771F881FDAF7880F969587953B
:1036000097F90895990F0008550FAA0BE0E8FEEF0F
:1036100016161706E807F907C0F012161306E40796
:10362000F50798F0621B730B840B950B39F40A268F
:1036300061F0232B242B252B21F408950A2609F46D
:10364000A140A6958FEF811D811D08950E94391B11
:103650000C94AD1B0E949F1B38F00E94A61B20F00B
:10366000952311F00C94961B0C949C1B11240C9424
:10367000E11B0E94BE1B70F3959FC1F3950F50E0B4
:10368000551F629FF001729FBB27F00DB11D639F14
:10369000AA27F00DB11DAA1F649F6627B00DA11DBA
:1036A000661F829F2227B00DA11D621F739FB00D60
:1036B000A11D621F839FA00D611D221F749F3327D0
:1036C000A00D611D231F849F600D211D822F762F69
:1036D0006A2F11249F5750409AF0F1F088234AF046
:1036E000EE0FFF1FBB1F661F771F881F91505040B2
:1036F000A9F79E3F510580F00C94961B0C94E11B9A
:103700005F3FE4F3983ED4F3869577956795B79538
:10371000F795E7959F5FC1F7FE2B880F911D969552
:10372000879597F9089599278827089597F99F67AE
:1037300080E870E060E008959FEF80EC0895002439
:103740000A941616170618060906089500240A9406
:1037500012161306140605060895092E0394000C8C
:1037600011F4882352F0BB0F40F4BF2B11F460FF1B
:1037700004C06F5F7F4F8F4F9F4F089557FD905844
:10378000440F551F59F05F3F71F04795880F97FB25
:10379000991F61F09F3F79F08795089512161306DF
:1037A0001406551FF2CF4695F1DF08C0161617060E
:1037B0001806991FF1CF8695710561050894089543
:1037C000E894BB2766277727CB0197F90895F999E5
:1037D000FECF92BD81BDF89A992780B50895262F16
:1037E000F999FECF1FBA92BD81BD20BD0FB6F894E6
:1037F000FA9AF99A0FBE01960895052E97FB1EF4CA
:1038000000940E94141C57FD07D00E94661C07FC00
:1038100003D04EF40C94141C50954095309521958E
:103820003F4F4F4F5F4F08959095809570956195EC
:103830007F4F8F4F9F4F08950E94881CA59F900D2A
:10384000B49F900DA49F800D911D11240895B7FF82
:103850000C941C1C0E941C1C821B930B08952F921D
:103860003F924F925F926F927F928F929F92AF9210
:10387000BF92CF92DF92EF92FF920F931F93CF935D
:10388000DF93CDB7DEB7CA1BDB0B0FB6F894DEBFF4
:103890000FBECDBF09942A88398848885F846E841A
:1038A0007D848C849B84AA84B984C884DF80EE8064
:1038B000FD800C811B81AA81B981CE0FD11D0FB66D
:1038C000F894DEBF0FBECDBFED010895A1E21A2E20
:1038D000AA1BBB1BFD010DC0AA1FBB1FEE1FFF1FB4
:1038E000A217B307E407F50720F0A21BB30BE40B04
:1038F000F50B661F771F881F991F1A9469F760954B
:103900007095809590959B01AC01BD01CF01089504
:10391000A29FB001B39FC001A39F700D811D112410
:10392000911DB29F700D811D1124911D0895505855
:10393000BB27AA270E94AF1C0C94AD1B0E949F1BA3
:1039400038F00E94A61B20F039F49F3F19F426F4AA
:103950000C949C1B0EF4E095E7FB0C94961BE92F4E
:103960000E94BE1B58F3BA176207730784079507B6
:1039700020F079F4A6F50C94E01B0EF4E0950B2EE4
:10398000BA2FA02D0B01B90190010C01CA01A001B1
:103990001124FF27591B99F0593F50F4503E68F10C
:1039A0001A16F040A22F232F342F4427585FF3CF4D
:1039B000469537952795A795F0405395C9F77EF41E
:1039C0001F16BA0B620B730B840BBAF09150A1F067
:1039D000FF0FBB1F661F771F881FC2F70EC0BA0FED
:1039E000621F731F841F48F4879577956795B79575
:1039F000F7959E3F08F0B0CF9395880F08F0992770
:103A0000EE0F9795879508950E94181D0C94AD1B95
:103A10000E94A61B58F00E949F1B40F029F45F3FB4
:103A200029F00C94961B51110C94E11B0C949C1BD7
:103A30000E94BE1B68F39923B1F3552391F3951BA4
:103A4000550BBB27AA2762177307840738F09F5FBF
:103A50005F4F220F331F441FAA1FA9F335D00E2E2C
:103A60003AF0E0E832D091505040E695001CCAF799
:103A70002BD0FE2F29D0660F771F881FBB1F26175C
:103A800037074807AB07B0E809F0BB0B802DBF0133
:103A9000FF2793585F4F3AF09E3F510578F00C9402
:103AA000961B0C94E11B5F3FE4F3983ED4F386959C
:103AB00077956795B795F7959F5FC9F7880F911D23
:103AC0009695879597F90895E1E0660F771F881F0F
:103AD000BB1F621773078407BA0720F0621B730BC2
:103AE000840BBA0BEE1F88F7E09508950E94C61B61
:103AF00088F09F5798F0B92F9927B751B0F0E1F0AF
:103B0000660F771F881F991F1AF0BA95C9F714C05E
:103B1000B13091F00E94E01BB1E008950C94E01BDD
:103B2000672F782F8827B85F39F0B93FCCF3869597
:103B300077956795B395D9F73EF4909580957095F4
:103B400061957F4F8F4F9F4F08950E94021B08F48D
:103B50008FEF08950E94021B880B990B0895DB01DB
:103B60008F939F930E941C1CBF91AF91A29F800DC9
:103B7000911DA39F900DB29F900D11240895991B44
:103B800079E004C0991F961708F0961B881F7A9554
:103B9000C9F780950895EE0FFF1F0590F491E02D71
:103BA00009940F931F93CF93DF938230910510F404
:103BB00082E090E0E0918E07F0918F0730E020E006
:103BC000B0E0A0E0309799F42115310509F44AC01E
:103BD000281B390B24303105D8F58A819B8161156A
:103BE000710589F1FB0193838283FE0111C040813D
:103BF00051810281138148175907E0F0481759078E
:103C000099F4109761F012960C93129713961C93E7
:103C10003296CF01DF91CF911F910F9108950093BC
:103C20008E0710938F07F4CF2115310551F04217FD
:103C3000530738F0A901DB019A01BD01DF01F8014A
:103C4000C1CFEF01F9CF90938F0780938E07CDCF2F
:103C5000FE01E20FF31F81939193225031093983C2
:103C60002883D7CF20918C0730918D07232B41F4E7
:103C700020911A0130911B0130938D0720938C07FE
:103C800020911801309119012115310541F42DB70A
:103C90003EB740911C0150911D01241B350BE09152
:103CA0008C07F0918D07E217F307A0F42E1B3F0B52
:103CB0002817390778F0AC014E5F5F4F241735079E
:103CC00048F04E0F5F1F50938D0740938C078193F0
:103CD00091939FCFF0E0E0E09CCFCF93DF930097EC
:103CE000E9F0FC01329713821282A0918E07B09105
:103CF0008F07ED0130E020E01097A1F420813181A1
:103D0000820F931F20918C0730918D072817390758
:103D100009F061C0F0938D07E0938C07DF91CF919C
:103D20000895EA01CE17DF07E8F54A815B819E011D
:103D300041155105B1F7E901FB83EA834991599196
:103D4000C40FD51FEC17FD0761F4808191810296A5
:103D5000840F951FE90199838883828193819B83D6
:103D60008A83F0E0E0E012968D919C911397009782
:103D7000B9F52D913C911197CD010296820F931FB9
:103D800020918C0730918D072817390739F6309725
:103D900051F510928F0710928E07B0938D07A09364
:103DA0008C07BCCFD383C28340815181840F951F80
:103DB000C817D90761F44E5F5F4F88819981480F1A
:103DC000591F518340838A819B819383828321156C
:103DD000310509F0B0CFF0938F07E0938E079ECFA7
:103DE000FD01DC01C0CF13821282D7CFB0E0A0E08A
:103DF000ECEFFEE10C94311C8C01009751F4CB01E7
:103E00000E94D11D8C01C801CDB7DEB7E0E10C9452
:103E10004D1CFC01E60FF71F9C0122503109E217EF
:103E2000F30708F49DC0D901CD91DC911197C61715
:103E3000D70798F0C530D10530F3CE010497861727
:103E4000970708F3C61BD70B2297C193D1936D93A5
:103E50007C93CF010E946D1ED6CF5B01AC1ABD0AC8
:103E60004C018C0E9D1EA0918E07B0918F07512C96
:103E7000412CF12CE12C109731F580918C07909119
:103E80008D078815990509F05CC04616570608F09D
:103E900058C08091180190911901009741F48DB795
:103EA0009EB740911C0150911D01841B950BE81792
:103EB000F90708F055C0F0938D07E0938C07F901DE
:103EC00071836083A0CF8D919C91119712966C9015
:103ED000129713967C901397A815B90559F56C01A4
:103EE00042E0C40ED11CCA14DB0420F1AC014A1913
:103EF0005B09DA011296159780F062827382518312
:103F00004083D9016D937C93E114F10471F0D701E2
:103F10001396FC93EE93129776CF22968C0F9D1FEB
:103F2000F90191838083F301EFCFF0938F07E09342
:103F30008E0769CF4816590608F42C017D01D3017C
:103F40009ACFCB010E94D11D7C01009749F0AE01B0
:103F5000B8010E94B31FC8010E946D1E870153CF94
:103F600010E000E050CFFB01DC0102C001900D9297
:103F700041505040D8F70895FB01DC0101900D92AB
:103F80000020E1F7089510E0C0E8D0E004C0FE0191
:103F90000E94CB1D2196C138D107C9F7F894FFCFF5
:103FA0000A0B0C0D0607080931323341343536420D
:103FB000373839432E30234400009007800000003A
:103FC000400014005400000000006206C205EF0526
:103FD000AF062006FE051206000000008C075F07F2
:103FE000A3083507580745073607000000003609C3
:103FF000C205A308A2080000000095025502240291
:104000004D6173733A20006E616E00696E66006FD9
:10401000766600206720202020000D0A005B315DBD
:104020005365742054696D65005B325D4368656358
:104030006B207363616C650053797374656D2073D5
:1040400074617274696E672E2E2E005379737465D5
:104050006D007374617274696E67210054696D65D7
:104060006F75742C20636865636B20485837313155
:1040700020776972696E6720616E642070696E7363
:104080002E004858373131204572726F722100433B
:104090006865636B20776972696E670048583731CD
:1040A0003120696E697469616C697A6174696F6ED7
:1040B00020636F6D706C6574652E005365742048C5
:1040C0006F7572733A0030005B315D2043616C693B
:1040D0006272617465005B325D20536574207A659D
:1040E000726F00546F67676C652056616C76653F30
:1040F00000413A59657320443A4261636B0056614E
:104100006C7665204F50454E2100486F6C6420430B
:104110002D52756E20442D457363002020202020F1
:1041200020202020202020202020200053657420E3
:104130004D696E733A0053657420536563733A009A
:10414000426567696E2070726F636573733F0068C4
:1041500020006D20005374617274696E6720696E6F
:104160002E2E2E00412D20746F207363616C65200C
:104170007A65726F003C43757272656E742073636A
:10418000616C653E0050726F63657373696E672E74
:104190002E2E005363616C65200043616C6962726E
:1041A00061746564210043616C6962726174696F56
:1041B0006E0043616E63656C6564210054696D65D2
:1041C0003A200054696D6520526561636865642119
:1041D00000446F6E652E0054696D65722046696EED
:1041E00069736865642E2057616974696E6720324F
:1041F000732E2E2E0050726F636573730052656DBF
:104200006F7665206C6F616473004F6E207363611D
:104210006C652000506C616365206E6F7468696E18
:10422000672E0050726573732027412720746F201A
:10423000746172652E004E6F7720706C616365202B
:104240006B6E6F770052657475726E696E6720745D
:084250006F204D656E75000042
:00000001FF
