:100000000C9481000C94A9000C94A9000C94A900F4
:100010000C94A9000C94A9000C94A9000C94A900BC
:100020000C94A9000C94A9000C94A9000C945D0CEC
:100030000C94A9000C94A9000C94A9000C94A9009C
:100040000C94BB0B0C94A9000C942B0C0C94050C79
:100050000C94A9000C94A9000C94A9000C94A9007C
:100060000C94190D0C94A9004E414E494E49545917
:10007000494E46CDCCCC3D0AD7233C17B7D1387773
:10008000CC2B329595E6241FB14F0A000020410089
:1000900000C84200401C4620BCBE4CCA1B0E5AAED3
:1000A000C59D7400000000240027002A0000000005
:1000B00000250028002B0000000000230026002956
:1000C0000004040404040404040202020202020301
:1000D000030303030301020408102040800102040B
:1000E000081020010204081020000000080002018E
:1000F0000000030407000000000000000000380EAC
:10010000A31811241FBECFEFD8E0DEBFCDBF13E090
:10011000A0E0B1E0E4E2FFE302C005900D92A63B4F
:10012000B107D9F727E0A6EBB3E001C01D92AE38C6
:10013000B207E1F710E0C0E8D0E004C02197FE016B
:100140000E948D1DCF37D107C9F70E9493100C94E0
:10015000851F0C9400004F925F926F927F928F9256
:100160009F92AF92BF92CF92DF92EF92FF920F9346
:100170001F9340914006509141064F5F5F4F60E0F2
:10018000C12CD12C760188248A94982CA82CB12CCF
:1001900080E090E0DC01262F30E0421753078CF11D
:1001A000220F331F220F331FF901EE52FA4F408006
:1001B000518062807380481459046A047B0424F4DB
:1001C00080809180A280B380F901EE52FA4F408086
:1001D000518062807380C414D504E604F70424F4CB
:1001E000C080D180E280F3802E523A4FF901008125
:1001F000118122813381800F911FA21FB31F6F5F76
:10020000CACF88199909AA09BB09BC01CD016C198B
:100210007D098E099F0920912E0604C0959587952A
:10022000779567952A95D2F71F910F91FF90EF90E0
:10023000DF90CF90BF90AF909F908F907F906F9006
:100240005F904F9008950F931F930E94AB006093AF
:1002500042067093430680934406909345060091AE
:100260001E0610911F062091200630912106601B6A
:10027000710B820B930B0E94891A2091CE0530914D
:10028000CF054091D0055091D1050E94E81A1F91E9
:100290000F91089596E0899FD0011124A45BBA4F75
:1002A00090967C936E935F9791E091969C93919733
:1002B000E091B905F091BA059091B805992339F00C
:1002C000309751F0811108C08091680509943097EA
:1002D00019F05C968C91FACF08958F929F92AF920D
:1002E000BF92FF920F931F93CF93DF93F0904E0630
:1002F0002BE02F1508F44CC02091500608E512E0C1
:10030000021B110927FD1395000F111F000F111F6C
:1003100020914F06C8E8D0E0C21BD10927FDD39534
:10032000CC0FDD1FCC0FDD1F4E010D2E000CAA08D7
:10033000BB089801012E000C440B550B28193909F4
:100340004A095B09DC010E94E91B24EB30E040E034
:1003500050E00E94BF1B820E931EA41EB51E8C1679
:100360009D062CF0E801801691060CF4E40122971A
:10037000CC0FDD1F2FB7F8948F2D90E0FC01EE0F0E
:10038000FF1FE80FF91FE95DFA4FD283C1832FBF2A
:10039000DF91CF911F910F91FF90BF90AF909F90F1
:1003A0008F900895833081F028F4813099F0823065
:1003B000A9F008958730A9F08830C9F08430B1F4ED
:1003C000809180008F7D03C0809180008F77809323
:1003D0008000089584B58F7784BD089584B58F7D9E
:1003E000FBCF8091B0008F778093B000089580910B
:1003F000B0008F7DF9CFCF93DF93282F30E0F90144
:10040000E751FF4F8491F901EB52FF4FD491F9016D
:10041000EF53FF4FC491CC23A1F081110E94D20170
:10042000EC2FF0E0EE0FFF1FE954FF4FA591B491C0
:10043000EC91ED2381E090E009F480E0DF91CF9131
:10044000089580E090E0FACF862F0C94FB011F9373
:10045000CF93DF93282F30E0F901E751FF4F8491CC
:10046000F901EB52FF4FD491F901EF53FF4FC491C3
:10047000CC23A9F0162F81110E94D201EC2FF0E0BD
:10048000EE0FFF1FE355FF4FA591B4918FB7F8947E
:10049000EC91111108C0D095DE23DC938FBFDF9162
:1004A000CF911F910895DE2BF8CF862F642F0C94E7
:1004B0002702CF93DF9390E0FC01EB52FF4F249192
:1004C0008F539F4FFC0184918823C9F090E0880FDF
:1004D000991FFC01ED55FF4FA591B491FC01E35527
:1004E000FF4FC591D49161110DC09FB7F8948C91C5
:1004F000209582238C938881282328839FBFDF91B6
:10050000CF910895623051F49FB7F8943C91822FB7
:10051000809583238C93E8812E2BEFCF8FB7F894AF
:10052000EC912E2B2C938FBFEACF862F642F0C9447
:1005300059023FB7F89480917A0490917B04A0917E
:100540007C04B0917D0426B5A89B05C02F3F19F00F
:100550000196A11DB11D3FBFBA2FA92F982F882743
:10056000BC01CD01620F711D811D911D42E0660F1E
:10057000771F881F991F4A95D1F708958F929F92F0
:10058000AF92BF92CF92DF92EF92FF924B015C014C
:100590000E9499026B017C010E9499026C197D09ED
:1005A0008E099F09683E734081059105A8F321E0FB
:1005B000821A9108A108B10888EEC80E83E0D81EFF
:1005C000E11CF11C81149104A104B10429F7FF90EE
:1005D000EF90DF90CF90BF90AF909F908F90089555
:1005E0002FB7F89460917604709177048091780425
:1005F000909179042FBF0895CF92DF92EF92FF92EE
:10060000CF938091C8050E94FB018111C6C00E9452
:100610009902C0902406D0902506E0902606F0901E
:1006200027066C197D098E099F096093280670932F
:10063000290680932A0690932B060E9499026093C4
:100640002406709325068093260690932706109221
:100650003A06C0E0C12CD12C76018091C90590E00A
:100660004796C817190609F0BCF461E08091C705E8
:100670000E94270260E08091C7050E942702C831CE
:1006800048F48091C8050E94FB01CC0CDD1CEE1CD7
:10069000FF1CC82ACF5FE1CF80E8E826C114D1044F
:1006A000E10491E0F90618F021E02093460620913C
:1006B0004C06222361F04FEF5FEF6FEF70E0DB013C
:1006C000CA018C199D09AE09BF096C017D012091F9
:1006D00022063091230640914006509141064F5F1B
:1006E0005F4F24173507D9F5109223061092220682
:1006F000C114D104E104F104F1F020913A062F5F16
:1007000020933A06E0912206F0912306EE0FFF1F98
:10071000EE0FFF1FEE52FA4FC082D182E282F382C7
:1007200080913006882339F080912D068231F0F4D3
:100730008F5F80932D060E94F002609347067093AE
:1007400048068093490690934A0610924B06809182
:100750003A06CF91FF90EF90DF90CF9008952F5FF2
:100760003F4F3093230620932206C2CF0E94AB0056
:1007700060931E0670931F068093200690932106B7
:1007800010922D061092300681E080933B068091F6
:100790003A068F5F80933A06CECF0E94F002C09057
:1007A0004706D0904806E0904906F0904A066C193A
:1007B0007D098E099F09653671058105910518F03F
:1007C00081E080934B0610923A06C1CFCF92DF9220
:1007D000EF92FF92CF9381E08093300610922D0626
:1007E00010923E060E94F00220913C0630913D0698
:1007F0006B017C01C20ED31EE11CF11C0E94FC02A5
:10080000C82F80913F0681110BC00E94F002C616CE
:10081000D706E806F90620F481E080933E0602C080
:10082000C23061F7CF91FF90EF90DF90CF900895A5
:100830000F931F93CF93DF93C82FD62F86E0C89FC7
:10084000F0011124E45BFA4F11A2878D90A1813051
:100850009105F1F058F082309105F1F1039709F418
:1008600040C0DF91CF911F910F9108956623C9F386
:1008700061E070E08C2F0E944A010E94F0026093B8
:10088000A4057093A5058093A6059093A705E9CFCD
:100890000E94F0020091A4051091A5052091A605E3
:1008A0003091A705AB01BC01401B510B620B730BD0
:1008B0008091B6059091B705B0E0A0E08417950748
:1008C000A607B70748F462E070E08C2FDF91CF9164
:1008D0001F910F910C944A0163E070E0D111C1CFD8
:1008E000F4CF70E060E0F1CF6F927F928F929F9291
:1008F000AF92BF92CF92DF92EF92FF920F931F932E
:10090000CF93DF9381E08093B8050E94F0020091BD
:10091000A8051091A9052091AA053091AB05AB015E
:10092000BC01401B510B620B730B8091B40590917D
:10093000B505B0E0A0E084179507A607B70708F053
:1009400014C1C0E08091B205C81760F4E091AE0513
:10095000F091AF05EC0FF11D62E080810E94590219
:10096000CF5FF0CF712C812C912C54018394809116
:10097000B305781608F05FC0072D10E0E091B005D0
:10098000F091B105E00FF11F61E080810E945902F2
:10099000E091B005F091B105E00FF11F60E08081BA
:1009A0000E942702D501C401072C04C0880F991F9B
:1009B000AA1FBB1F0A94D2F76C017C01E094F0944B
:1009C000612C8091B2056816F8F4C62DD0E0E09154
:1009D000AE05F091AF05EC0FFD1F80810E94FB0179
:1009E0002496CC0FDD1FC45BDA4F892B41F488813C
:1009F00099818C299D29998388836394E2CF88818A
:100A000099818E219F21F7CFE091B005F091B1053A
:100A1000E00FF11F61E080810E9427028091B00504
:100A20009091B105080F191F60E0F80180810E94C4
:100A3000590273949CCFCCE4D5E0FE018FEF9FEF79
:100A4000278D30A1232B21F4148E968F858F11A230
:100A5000369625E0E838F20799F7F12C96E0D92E82
:100A60008091B205F81608F050C0E12C0F2D10E06F
:100A7000000F111F0C5A1A4F2091B305E21608F00F
:100A800042C0F801608171810E2C02C07695679595
:100A90000A94E2F7F29E900111242E0D311DECE430
:100AA000F5E080E0458D568D2417350709F461C0C7
:100AB0008F5F36968A30B1F760FF23C0ECE4F5E033
:100AC00090E080E0448D411117C0E091AC05F091B9
:100AD000AD05E20FF31F4081D89EF001D99EF00DC5
:100AE0001124E45BFA4F448F368F258F10A2178EA6
:100AF00061E00E94180405C0019636968A3091057F
:100B000009F7E394B9CFF394ABCF10E089A1811139
:100B1000182F2696F5E0C838DF07C1F70E94F002CB
:100B20006093A8057093A9058093AA059093AB05DF
:100B30001123D9F080916D058823B9F080916B0560
:100B400090916C05019789F480916805DF91CF91B0
:100B50001F910F91FF90EF90DF90CF90BF90AF90DB
:100B60009F908F907F906F9008951092B80580E0CD
:100B7000EDCF6170BECF08950895AF92BF92CF922E
:100B8000DF92EF92FF920F931F93CF93DF936C014D
:100B90007B018B01040F151FEB015E01AE18BF082E
:100BA000C017D10759F06991D601ED91FC910190E0
:100BB000F081E02DC6010995892B79F7C501DF91F8
:100BC000CF911F910F91FF90EF90DF90CF90BF904A
:100BD000AF900895FC01538D448D252F30E0842F74
:100BE00090E0821B930B541710F0CF960895019755
:100BF0000895FC01918D828D981761F0A28DAE0F42
:100C0000BF2FB11D5D968C91928D9F5F9F73928FC8
:100C100090E008958FEF9FEF0895FC01918D828DF4
:100C2000981731F0828DE80FF11D858D90E00895C1
:100C30008FEF9FEF0895FC01918D228D892F90E019
:100C4000805C9F4F821B91098F73992708958EE7CF
:100C500094E00E941B0621E0892B09F420E0822FFA
:100C6000089580E090E0892B29F00E9427068111E9
:100C70000C9400000895FC01A48DA80FB92FB11D9C
:100C8000A35ABF4F2C91848D90E001968F739927C2
:100C9000848FA689B7892C93A089B1898C918370A0
:100CA00080648C93938D848D981306C00288F38999
:100CB000E02D80818F7D80830895EF92FF920F93C6
:100CC0001F93CF93DF93EC0181E0888F9B8D8C8DF8
:100CD00098131AC0E889F989808185FF15C09FB7EC
:100CE000F894EE89FF896083E889F98980818370AF
:100CF000806480839FBF81E090E0DF91CF911F915E
:100D00000F91FF90EF900895F62E0B8D10E00F5F7E
:100D10001F4F0F731127E02E8C8D8E110CC00FB654
:100D200007FCFACFE889F989808185FFF5CFCE01EC
:100D30000E943B06F1CFEB8DEC0FFD2FF11DE35A26
:100D4000FF4FF0829FB7F8940B8FEA89FB8980816F
:100D50008062CFCFCF93DF93EC01888D8823B9F0E9
:100D6000AA89BB89E889F9898C9185FD03C08081B6
:100D700086FD0DC00FB607FCF7CF8C9185FFF2CF33
:100D8000808185FFEDCFCE010E943B06E9CFDF9148
:100D9000CF9108952091F703260F3327331F213277
:100DA0003105ECF420914004FC0190E080E0243017
:100DB00069F082E00895A091F7032191AC014952B6
:100DC0005C4FA40FB52FB11D2C930196861798F395
:100DD0008091F703680F6093F70380E0089581E046
:100DE00008951092400481E080933F0410921A0409
:100DF00061E082E10E94270261E083E10E94270214
:100E0000E9EBF0E080818E7F808380818D7F80831D
:100E100088E48093B80085E48093BC000895CF9364
:100E2000DF9391E09093D6038823B9F0C091B80086
:100E3000D091BA008091BC008A7B8093BC0060E0B6
:100E400082E10E94270260E083E10E9427020E9463
:100E5000F106D093BA00C093B800DF91CF91089506
:100E60000895E091700480916F04E81730F4F0E089
:100E7000EA54FC4F808190E008958FEF9FEF089532
:100E80009091700480916F042FEF3FEF981748F412
:100E9000E92FF0E0EA54FC4F208130E09F5F90930F
:100EA0007004C901089580916F0490917004891BAA
:100EB000990B0895CF92DF92EF92FF920F931F93B9
:100EC000CF93DF937C01CB018A012091460422233A
:100ED00089F0EB016B01C40ED51ECC15DD0569F060
:100EE0006991D701ED91FC910190F081E02DC7014E
:100EF0000995F3CF642F0E94CA06C801DF91CF91F4
:100F00001F910F91FF90EF90DF90CF900895CF93B6
:100F1000DF931F92CDB7DEB7698320914604222369
:100F2000F9F020916D04203258F021E030E0FC010E
:100F30003383228390E080E00F90DF91CF9108957A
:100F400080916E04E82FF0E0E95BFB4F998190837C
:100F50008F5F80936E0480936D0481E090E0ECCF0E
:100F600061E0CE0101960E94CA06F7CFCF92DF92D0
:100F7000EF92FF920F931F93CF93DF93FC01C481F5
:100F800021E020934604C093670410926E041092EF
:100F90006D048385682B8BE195E00E948707D091D3
:100FA0006D04D13208F092C00E9499026B017C015D
:100FB00080914004811165C082E08093400481E00B
:100FC00080933F048FEF80933E0410923D04D093B2
:100FD0003C04A7E4B4E0ECE1F4E080E0D81385C081
:100FE00010921B0480911B04CC0FC82BC0931B04D0
:100FF00080911A04813009F07CC010921A040E947A
:1010000099026B017C0180911B048093BB0080914D
:10101000420490914304A0914404B0914504892B6B
:101020008A2B8B2B99F00E94990200914204109117
:10103000430420914404309145046C197D098E09C4
:101040009F090617170728073907E0F18091BC00B0
:1010500083FDD9CF85EC8093BC000E9499026B017F
:101060007C0180914004823009F445C080913E04A7
:101070008F3F61F180913E04803241F180913E04C6
:1010800025C08091420490914304A0914404B09102
:101090004504892B8A2B8B2B09F48ACF0E94990255
:1010A000009142041091430420914404309145047E
:1010B0006C197D098E099F0906171707280739073C
:1010C00008F076CF809141040E940F0710926E04C1
:1010D00010926D0410924604DF91CF911F910F91F1
:1010E000FF90EF90DF90CF9008959D9191938F5F47
:1010F00075CF85EEB0CF8091420490914304A091CA
:101100004404B0914504892B8A2B8B2B09F4A9CF79
:101110000E949902009142041091430420914404DA
:10112000309145046C197D098E099F090617170730
:101130002807390708F095CFC5CF089590E080E0E3
:1011400008950F931F93CF938C01C62F0E94B6076B
:101150006C2F6460C8010E94B6076C2F6B7FC801BA
:101160000E94B60783EC90E00197F1F7CF911F91B1
:101170000F9108950F931F93CF93DF938C01D62F78
:10118000C42F607F642B0E94A10880E1D89FB0012A
:1011900011246C2BC801DF91CF911F910F910C94FA
:1011A000A10840E061E08BEB95E00E94BA088BE378
:1011B0009FE10197F1F70895CF93DF93CDB7DEB7A5
:1011C00028970FB6F894DEBF0FBECDBF98E0EEE1D2
:1011D000F1E0DE01119601900D929A95E1F7909160
:1011E000C305981708F48FEF90E0880F991F21E04E
:1011F00030E02C0F3D1F820F931FFC01608160685F
:1012000040E08BEB95E028960FB6F894DEBF0FBE5A
:10121000CDBFDF91CF910C94BA081F93CF93DF938A
:10122000182FEB010E94D108812F0E94DC084C810D
:101230005D81688179818BEB95E0DF91CF911F9182
:101240000C94BD05CF93DF93EB010E94DC084C8129
:101250005D81688179818BEB95E0DF91CF910C9472
:10126000BD0541E00E94BA0881E090E00895FC01CC
:1012700080819181009711F00C942F1E0895FB013D
:1012800001900020E9F73197AF01461B570BDC01B5
:10129000ED91FC910280F381E02D09948F929F9251
:1012A000AF92BF920F931F93CF93DF93CDB7DEB76B
:1012B000A1970FB6F894DEBF0FBECDBF19A2423082
:1012C00008F44AE08E010F5D1F4F842E912CB12C43
:1012D000A12CA50194010E94281CE62FB901CA0186
:1012E000EA3004F5E05DD801EE938D01232B242B29
:1012F000252B79F790E080E0109729F0BD018BEB6A
:1013000095E00E943F09A1960FB6F894DEBF0FBE8C
:10131000CDBFDF91CF911F910F91BF90AF909F9064
:101320008F900895E95CDFCFCF92DF92EF92FF922A
:1013300097FF18C06B017C0141E06DE28BEB95E0FB
:101340000E94BA0866277727CB016C197D098E09A0
:101350009F094AE00E944E090196FF90EF90DF90AE
:10136000CF9008954AE0FF90EF90DF90CF900C94DB
:101370004E09BC018BEB95E00C943F098F929F9234
:10138000AF92BF92CF92DF92EF92FF920E94FC0247
:10139000882309F456C00E94F002AB01BC01809181
:1013A0005C0690915D06A0915E06B0915F06449642
:1013B000A11DB11D84179507A607B70708F041C006
:1013C0000E9423016B017C0181E00E94DC0880E621
:1013D00091E00E94B909A7019601C701B6010E94D8
:1013E0006C1D67E671E081111AC046015701E8944F
:1013F000B7F82FEF3FEF4FE75FE7C501B4010E9459
:101400006C1D811127C02FEF3FEF4FE75FE7C5014C
:10141000B4010E94821A1816ECF46BE671E08BEBB3
:1014200095E00E943F0983E791E00E94B9090E947C
:10143000F00260935C0670935D0680935E06909365
:101440005F06FF90EF90DF90CF90BF90AF909F909E
:101450008F9008952FEF3FEF4FE75FE4C701B6018C
:101460000E94671D18161CF46FE671E0D8CF2FEFAD
:101470003FEF4FE75FECC701B6010E94821A87FD7C
:10148000F3CF20E030E0A901C701B6010E94821A23
:1014900087FF0AC041E06DE28BEB95E00E94BA083D
:1014A000F7FAF094F7F8F0942DEC3CEC4CE45DE3A3
:1014B000C701B6010E945A1C4B015C010E94381DF5
:1014C0006B017C010E94871A9B01AC01C501B4012C
:1014D0000E94591C4B015C014AE0C701B6010E9401
:1014E0004E0941E06EE28BEB95E00E94BA0820E0E5
:1014F00030E040E251E4C501B4010E94E81A0E94C4
:10150000381D90E080E04AE00E944E098CCF0F9396
:101510001F93CF93DF93EC010E943F098C016AE790
:1015200071E0CE010E943F09800F911FDF91CF91A2
:101530001F910F9108950F931F93CF93DF93EC01A9
:1015400088819981009759F02A813B8126173707B6
:1015500030F081E0DF91CF911F910F9108958B01C1
:101560006F5F7F4F0E94B81E009759F09983888360
:101570001B830A832C813D81232B59F7FC011082A8
:10158000E8CF80E0E7CF0F931F93CF93DF9300D096
:10159000CDB7DEB789831A8200917E0610917F064F
:1015A0000F5F1F4FB8018AE796E00E949B0A8823CD
:1015B000A1F020917A0630917B0680917E06909171
:1015C0007F06BE016F5F7F4F820F931F0E947E1FB9
:1015D00010937F0600937E0681E00F900F90DF91BD
:1015E000CF911F910F910895EF92FF920F931F9348
:1015F000CF93DF93EC017B018A01BA010E949B0A21
:1016000028813981811114C02115310519F0C901D2
:101610000E942F1E198218821D821C821B821A8230
:10162000CE01DF91CF911F910F91FF90EF90089520
:101630001D830C83B701C9010E947E1FF1CFFC01FD
:10164000118210821382128215821482F6E08A3788
:101650009F0769F060917A0670917B0661157105AC
:1016600031F040917E0650917F060C94F40A089563
:10167000FB0101900020E9F73197AF01461B570BA2
:101680000C94F40AFC0111821082138212821582DA
:101690001482FB0101900020E9F73197AF01461B4E
:1016A000570B0C94F40ACF93DF9300D000D000D0F6
:1016B000CDB7DEB76DE771E0CE0101960E94420B17
:1016C000BE016F5F7F4F80E00E940D09CE01019641
:1016D0000E94370969E871E0CE0101960E94420B31
:1016E000BE016F5F7F4F81E00E942209CE0101960B
:1016F0000E94370926960FB6F894DEBF0FBECDBF05
:10170000DF91CF91089585ED8093BC0080914204D4
:1017100090914304A0914404B09145040796A11D03
:10172000B11D23E0B695A795979587952A95D1F792
:101730002091BC0024FD03C0109240040895409104
:101740004204509143046091440470914504452B38
:10175000462B472B69F30097A105B10541F02AE21A
:101760002A95F1F700C00197A109B109E1CF809155
:1017700041040C940F071F920F920FB60F92112481
:101780002F933F938F939F93AF93BF938091760452
:1017900090917704A0917804B09179043091750408
:1017A00023E0230F2D3758F50196A11DB11D20937D
:1017B00075048093760490937704A0937804B09393
:1017C000790480917A0490917B04A0917C04B0917B
:1017D0007D040196A11DB11D80937A0490937B0432
:1017E000A0937C04B0937D04BF91AF919F918F91A2
:1017F0003F912F910F900FBE0F901F90189526E8E4
:10180000230F0296A11DB11DD2CF1F920F920FB6CA
:101810000F9211242F933F934F935F936F937F9376
:101820008F939F93AF93BF93EF93FF938EE794E0D3
:101830000E943B06FF91EF91BF91AF919F918F91D5
:101840007F916F915F914F913F912F910F900FBEBC
:101850000F901F9018951F920F920FB60F921124A0
:101860002F938F939F93EF93FF93E0918E04F091CA
:101870008F048081E0919404F091950482FD1BC057
:101880009081809197048F5F8F73209198048217C5
:1018900041F0E0919704F0E0E258FB4F958F809380
:1018A0009704FF91EF919F918F912F910F900FBE11
:1018B0000F901F9018958081F4CF1F920F920FB652
:1018C0000F9211242F933F934F935F936F937F93C6
:1018D0008F939F93AF93BF93CF93DF93EF93FF9338
:1018E00080916804C0914B05D0E087FF24C010921E
:1018F000850010928400809168048F5F8093680453
:1019000080916804082E000C990B8C179D0724F415
:10191000809168048C30C4F180918400909185009E
:10192000049680349C4908F47AC080918400909198
:101930008500049676C080916804082E000C990BEF
:101940008C179D07C4F6E09168048E2FEE0F990B5B
:10195000FC01EE0FFF1FE80FF91FE95DFA4F8081D0
:1019600086FFC9CFE09168048E2FEE0F990BFC0122
:10197000EE0FFF1FE80FF91FE95DFA4F808160E06D
:101980008F730E942702B7CF209184003091850089
:10199000E09168048E2FEE0F990BFC01EE0FFF1FF4
:1019A000E80FF91FE95DFA4F81819281820F931F41
:1019B0009093890080938800E09168048E2FEE0F49
:1019C000990BFC01EE0FFF1FE80FF91FE95DFA4FBD
:1019D000808186FF11C0E09168048E2FEE0F990B75
:1019E000FC01EE0FFF1FE80FF91FE95DFA4F808140
:1019F00061E08F730E942702FF91EF91DF91CF91F9
:101A0000BF91AF919F918F917F916F915F914F9116
:101A10003F912F910F900FBE0F901F90189580E46B
:101A20009CE990938900809388008FEF80936804ED
:101A3000E3CF1F920F920FB60F9211242F933F9373
:101A40004F935F936F937F938F939F93AF93BF93C6
:101A5000EF93FF938091B900887F803609F44AC0E4
:101A6000F0F5883209F4A7C018F5803109F49BC05D
:101A7000B8F4882309F4F9C0883009F494C0FF91C0
:101A8000EF91BF91AF919F918F917F916F915F91F6
:101A90004F913F912F910F900FBE0F901F9018956F
:101AA000883109F488C0803251F780933E0414C015
:101AB000803409F49DC040F48033B9F38833F9F6DB
:101AC00080933E0485ECB0C0803509F485C088352C
:101AD00009F496C0883499F60E94830BD0CF8839D8
:101AE00009F48CC038F5883729F050F4883611F0A5
:101AF000803729F683E0809340041092190457C080
:101B0000883809F47BC0803919F0803809F0B7CFE4
:101B100080911904803208F071C0E091190481E0CD
:101B20008E0F809319048091BB00F0E0E750FC4FCA
:101B300080833DC0803B39F0E0F4803A09F479C0FD
:101B4000883A09F09CCF84E0809340041092F80317
:101B50001092F703E0916B04F0916C040995809169
:101B6000F70381110FC081E08093F7031092D70330
:101B700009C0803C09F4A6CF883C09F4A3CF883B78
:101B800009F07DCFE091F80381E08E0F8093F80398
:101B9000F0E0E952FC4F80818093BB009091F80304
:101BA0008091F70329C080911B048093BB0085ECD2
:101BB0008093BC0064CF90913D0480913C049817C1
:101BC00058F5E0913D0481E08E0F80933D04F0E0F4
:101BD000E45EFB4F8081E9CFE0913D0481E08E0F10
:101BE00080933D048091BB00F0E0E45EFB4F808376
:101BF00090913D0480913C049817C8F285E8D8CFB5
:101C0000E0913D0481E08E0F80933D048091BB0004
:101C1000F0E0E45EFB4F808380913F0481115CCF54
:101C200081E080931A0484EA8093BC0010924004FF
:101C300026CF85EC8093BC0010924004809119045B
:101C4000803230F4E0911904F0E0E750FC4F10824C
:101C50006091190470E0E0916904F0916A0489EFE1
:101C600093E00995109219040ACF10923E0434CFE4
:101C7000109281041092800488EE93E0A0E0B0E01E
:101C80008093820490938304A0938404B09385048A
:101C90002AE231E030937F0420937E0425EC30E08B
:101CA00030938B0420938A0424EC30E030938D042D
:101CB00020938C0420EC30E030938F0420938E042A
:101CC00021EC30E0309391042093900422EC30E03A
:101CD000309393042093920426EC30E030939504E3
:101CE00020939404109297041092980410929904EF
:101CF00010929A0410921E0510921D0580931F05E4
:101D000090932005A0932105B09322058CE391E0E8
:101D100090931C0580931B0510921B0710921F07C0
:101D200010921E07109220078AE591E090931A07FF
:101D300080931907E5E3F7E029E137E081E797E0D1
:101D4000108214821382158236968E179F07C1F770
:101D500084E091E090937C0780937B0780E091E0A2
:101D600090937E0780937D0784E080937F07809324
:101D7000800748E051E050937A07409379074AE0A2
:101D800050E0509382074093810744EF51E0509315
:101D9000840740938307109287071092860710925A
:101DA00075071092760710927707109278071092B5
:101DB00085071092100710920F074EE451E05093E0
:101DC0000E0740930D0797E29093110790E19093CF
:101DD000160792E0909317071092180740E050E022
:101DE00060E87FE34093890650938A0660938B06F0
:101DF00070938C0640938D0650938E0660938F06E9
:101E0000709390061092DD061092DE061092DF06A7
:101E10001092E0061092E2061092E1061092E3069C
:101E20001092E4061092E5061092E6061092E7067C
:101E30001092E8061092E9061092EA0691E090935B
:101E4000EB061092EC068093ED068093EE0610925E
:101E5000EF061092F0061092F1061092F206109220
:101E6000F3061092F4061092F5061092F606109200
:101E7000F7061092F8061092F9061092FA064CE84E
:101E80005AE05093FC064093FB061092FD06109218
:101E9000FE0640E150E0509300074093FF06109289
:101EA0000107109202071092030710920407109284
:101EB0000507109206071092070710920807109264
:101EC000090710920A0710920B0710920C078093D3
:101ED000870685E08093860686E0EBE1F7E0AEE4D6
:101EE000B5E001900D928A95E1F78AE591E0909333
:101EF0004D0580934C0584E1E1E2F7E0A4E5B5E00F
:101F000001900D928A95E1F78CE495E046E0F901A5
:101F10007C96DC015C9601900D924A95E1F72A5F70
:101F20003F4F069647E02535340781F780917107CA
:101F300090917207A0917307B09174078093A405E4
:101F40009093A505A093A605B093A7051092A805A8
:101F50001092A9051092AA051092AB0588E091E0B5
:101F60009093AD058093AC0584E091E09093AF052C
:101F70008093AE0580E091E09093B1058093B00529
:101F800080917F07909180079093B3058093B2056D
:101F90008AE090E09093B5058093B40584EF91E0DA
:101FA0009093B7058093B6051092B8051092BA05C4
:101FB0001092B9051092BE051092BD058EE491E015
:101FC0009093BC058093BB0587E28093BF05809109
:101FD00012078093C005809113078093C1058091FB
:101FE00014078093C205809115078093C30580E193
:101FF0008093C40582E08093C5051092C60587E8EA
:10200000E6E8F6E0A7ECB5E001900D928A95E1F7DD
:1020100080914B058C3008F082C091E0980F90932E
:102020004B0580934E0690E0FC01EE0FFF1FE80F7A
:10203000F91FE95DFA4F88EB9BE0928381836CE79F
:1020400071E08AE796E00E94420B109252061092CD
:1020500051061092530680E090E0A0E8BFE3809321
:10206000540690935506A0935606B09357061092C7
:1020700058061092590610925A0610925B0610925A
:102080005C0610925D0610925E0610925F0683E079
:1020900080936006109261061092620610926306A9
:1020A00010926406109265061092660610926706FA
:1020B000109268061092690610926A0610926B06DA
:1020C00010926C0610926D0610926E0610926F06BA
:1020D000109270061092710610927206109273069A
:1020E000109274061092750610927606109277067A
:1020F00010927806109279066CE771E08AE796E014
:102100000E94380B1092800610928106109282066F
:1021100010928306109284061092850608958FEF20
:1021200080934E068CCFCF93DF93CDB7DEB7639706
:102130000FB6F894DEBF0FBECDBF789484B5826031
:1021400084BD84B5816084BD85B5826085BD85B55B
:10215000816085BD80916E00816080936E001092D9
:102160008100809181008260809381008091810054
:1021700081608093810080918000816080938000E5
:102180008091B10084608093B1008091B000816043
:102190008093B00080917A00846080937A0080916F
:1021A0007A00826080937A0080917A0081608093C7
:1021B0007A0080917A00806880937A001092C10042
:1021C000E0918E04F0918F0482E08083E0918E0490
:1021D000F0918F041082E0918A04F0918B041082B8
:1021E000E0918C04F0918D0480E18083109296043C
:1021F000E0919204F091930486E08083E091900452
:10220000F0919104808180618083E0919004F0914D
:102210009104808188608083E0919004F091910422
:10222000808180688083E0919004F09191048081A6
:102230008F7D808368E971E08EE794E00E94870AD1
:1022400061E082E00E94590260E082E00E94270281
:1022500061E083E00E94590260E083E00E9427026F
:1022600061E08EE00E94590260E08EE00E94270249
:1022700061E08FE00E94590261E08FE00E94270236
:1022800080914E068C3008F050C061E081E10E94E0
:102290005902E0914E068E2F90E0DC01AA0FBB1F81
:1022A000A80FB91FA95DBA4F8C91807C81618C9376
:1022B00010924F06109250062CE08E2F622F0E9433
:1022C000811D829FB001112430E020E0AB01420F5C
:1022D000531FDA01AA0FBB1FA40FB51FA95DBA4F88
:1022E0009C9196FD16C02F5F3F4F2C30310571F742
:1022F00081110FC01092800082E0809381001092C3
:10230000850010928400B19A80916F008260809362
:102310006F008E2F90E0FC01EE0FFF1FE80FF91FFA
:10232000E95DFA4F80818064808390E080E00E94C4
:102330006D01109279061092700410926F04109241
:102340006E0410926D040E94F1068BEB95E0909361
:102350006C0480936B048CEB95E090936A048093FB
:1023600069041092C0058091C505823018F098E08C
:102370009093C0058093C30562E370E080E090E035
:102380000E94BE026091C6058BEB95E00E94B607E5
:1023900068EE73E080E090E00E94BE0260E38BEBA9
:1023A00095E00E94A1080BE416E4C8010197F1F73B
:1023B00060E38BEB95E00E94A108C8010197F1F75B
:1023C00060E38BEB95E00E94A10883E592E0019722
:1023D000F1F760E28BEB95E00E94A1086091C005E7
:1023E000606240E08BEB95E00E94BA0884E0809345
:1023F000C10540E06CE08BEB95E00E94BA080E94BA
:10240000D10882E08093C20540E066E08BEB95E066
:102410000E94BA0840E062E08BEB95E00E94BA08A7
:102420008BE39FE10197F1F788E08093C60560E0B8
:102430008BEB95E00E94B6076BEA71E0CE01019646
:102440000E94420BBE016F5F7F4F80E00E940D092A
:10245000CE0101960E94370962EB71E0CE01019630
:102460000E94420BBE016F5F7F4F81E00E942209F4
:10247000CE0101960E94370968EB7BE080E090E096
:102480000E94BE0261E08091C7050E94590260E08F
:102490008091C8050E94590281E08093C90560E0DF
:1024A0008091C7050E9427020E94F00260934706B0
:1024B000709348068093490690934A060E94F00262
:1024C000603679408105910518F40E94FC02F6CF30
:1024D0000E94E60310923B0680913E068823B9F0E5
:1024E0006CEB71E08EE794E00E94870A0E94D108AD
:1024F00080E00E94DC0882EE91E00E94B90981E050
:102500000E94DC088FEE91E00E94B909FFCF6CEFCA
:1025100071E08EE794E00E94870A90E080E00E94DC
:10252000A91B8F3FC1F090E080E00E94A91B80931F
:10253000540681E090E00E94A91B8093550682E03A
:1025400090E00E94A91B8093560683E090E00E94D1
:10255000A91B80935706209154063091550640914F
:102560005606509157062093CA053093CB054093E9
:10257000CC055093CD0560E070E080E89FE30E94B9
:10258000C61C6093CE057093CF058093D0059093C1
:10259000D1050E94E60310925206109251060E9445
:1025A000530B0E947404182F882309F479C061E04A
:1025B00083E00E9427020E94F002609381067093DC
:1025C0008206809383069093840681E0809385063B
:1025D000E0915106F0915206EC30F10508F060C030
:1025E000EC50FD4E0C948D1D0013BA138E15BE15C4
:1025F0005013D415A716F11335146314FF14821564
:102600001133F9F487E090E09093520680935106DD
:102610006CE771E08AE796E00E94380B6BE172E0AC
:10262000CE0101960E94420BBE016F5F7F4F80E09A
:102630000E940D09CE0101960E94370966E272E000
:1026400021C0123309F07AC082E090E090935206E4
:10265000809351066CE771E08AE796E00E94380BA0
:1026600068E272E0CE0101960E94420BBE016F5FEC
:102670007F4F80E00E940D09CE0101960E9437092C
:1026800066E372E0CE0101960E94420BBE016F5FCD
:102690007F4F81E00E942209CE0101960E943709F6
:1026A00080915306882309F463C361E082E00E94AD
:1026B000270261E08EE00E94270260E08FE00E9426
:1026C00027020E94FC0280915106909152068B30A5
:1026D000910509F497C308F055C38330910509F4B7
:1026E00070C4069709F439C4809185068823C9F01F
:1026F0000E94F002009181061091820620918306CB
:1027000030918406601B710B820B930B6C38710542
:102710008105910530F060E083E00E94270210926D
:10272000850680E090E0892B09F43BCF0E942706C4
:10273000882309F436CF0E94000033CF123409F009
:10274000AFCF81E090E0909352068093510663E40E
:1027500072E0CE0101960E94420BBE016F5F7F4F77
:1027600080E00E940D09CE0101960E94370961E5C3
:1027700072E088CF113489F580917906882319F1A8
:1027800090E080E00E946D01109279066EE572E0A3
:10279000CE0101960E94420BBE016F5F7F4F80E029
:1027A0000E940D09CE0101960E9437096CED75E07B
:1027B00080E090E00E94BE021092520610925106F4
:1027C0000E94530B6DCF8AE590E00E946D0181E07D
:1027D000809379066CE672E0DBCF143409F060CFA9
:1027E000EBCF812F012E000C990BC0970A97C0F4F4
:1027F000812F0E94C30A6AE772E0CE0101960E940F
:10280000420BBE016F5F7F4F81E00E942209CE0123
:1028100001960E943709CE0101960E941F0B36CF08
:102820001134D9F680917A0690917B060097C9F011
:102830000E94AB18609361067093620680936306F2
:10284000909364066CE771E08AE796E00E94380B8B
:1028500088E090E090935206809351066BE872E016
:10286000DFCE60E070E0CB01E5CF812F012E000CC0
:10287000990BC0970A9708F4BBCF113409F0ADCF7C
:1028800080917A0690917B060097C9F00E94AB1860
:10289000609365067093660680936706909368065A
:1028A0006CE771E08AE796E00E94380B89E090E0DF
:1028B000909352068093510665E972E0B1CE60E0D4
:1028C00070E0CB01E5CF812F012E000C990BC09752
:1028D0000A9708F48DCF113409F07FCF80917A06E2
:1028E00090917B06812C912C5401009721F00E943D
:1028F000AB184B015C018092690690926A06A09227
:102900006B06B0926C062091610630916206409190
:1029100063065091640660E87EEE86E390E00E94D4
:10292000711D6B017C012091650630916606409116
:10293000670650916806A0E6BAEE0E94DE1BC60E3E
:10294000D71EE81EF91EA8EEB3E0A50194010E946F
:10295000DE1BC60ED71EE81EF91EC0926D06D09271
:102960006E06E0926F06F09270066CE771E08AE7FF
:1029700096E00E94380B8AE090E090935206809394
:1029800051066FE972E0CE0101960E94420BBE0132
:102990006F5F7F4F80E00E940D09CE0101960E947B
:1029A000370981E00E94DC0860916106709162063F
:1029B00080916306909164060E9494098EEA92E0E9
:1029C0000E94B9096091650670916606809167065C
:1029D000909168060E94940981EB92E00E94B909E7
:1029E0006091690670916A0680916B0690916C0601
:1029F0000E94940987E693E00E94B90951CE1134F0
:102A000009F076C064EB72E0CE0101960E94420BA1
:102A1000BE016F5F7F4F80E00E940D09CE010196DD
:102A20000E94370983E080936006809160068823C6
:102A300009F448C01B861A861D861C861F861E86C2
:102A40004AE0BE016F5F7F4F90E00E94E718BE0131
:102A50006F5F7F4FCE010A960E94380BBE01665F02
:102A60007F4F81E00E942209CE010A960E94370919
:102A700068EE73E080E090E00E94BE028091600604
:102A800081508093600680918506882371F20E94B0
:102A9000F002009181061091820620918306309108
:102AA0008406601B710B820B930B6C3871058105DA
:102AB000910508F4BACF60E083E00E9427021092EB
:102AC0008506B3CF81E0809353060E94F0026093A5
:102AD00071067093720680937306909374062BE0D0
:102AE00030E030935206209351060E94D108D8CD91
:102AF000143409F0D5CD6CE771E08AE796E00E94C6
:102B0000380B5ACE143409F0CBCD4DE050E0509341
:102B100052064093510610925306C2CD113369F408
:102B200083E090E090935206809351066CE771E049
:102B30008AE796E00E94380BB3CD1233C9F6E6E07F
:102B4000F0E0F0935206E09351066CE771E08AE7FB
:102B500096E00E94380B63EC72E0CE0101960E9471
:102B6000420BBE016F5F7F4F80E00E940D09CE01D6
:102B700001960E94370964ED72E084CD64EE72E044
:102B8000CE0101960E94420BBE016F5F7F4F80E035
:102B90000E940D09CE0101960E9437096CED75E087
:102BA00080E090E00E94BE02812F012E000C990B64
:102BB000C0970A9708F41CCE1E3209F419CE1134BE
:102BC00009F091C000914006109141060E5F1F4F21
:102BD0001092230610922206101611066CF40E9421
:102BE000FC028091C8050E94FB01892BA9F70E9475
:102BF000230101501109F0CF80917A0690917B0654
:102C0000C12CD12C7601009721F00E94A7186B01EE
:102C10007C010E9423012091CA053091CB0540918F
:102C2000CC055091CD050E94E81AA70196010E949B
:102C3000C61C6B017C01C092CA05D092CB05E09204
:102C4000CC05F092CD05AC019B0160E070E080E81E
:102C50009FE30E94C61C6093CE057093CF058093BE
:102C6000D0059093D105C0925406D0925506E092BB
:102C70005606F092570684E5E82E86E0F82E10E01E
:102C800000E0F701D1907F01C8010E94A91BD8166E
:102C900021F06D2DC8010E94B11B0F5F1F4F043042
:102CA000110579F76CE771E08AE796E00E94380B2E
:102CB00062EF72E0CE0101960E94420BBE016F5F8F
:102CC0007F4F80E00E940D09CE0101960E943709D6
:102CD00069EF72E0CE0101960E94420BBE016F5F68
:102CE0007F4F81E05DCD143409F0DACC6CE771E000
:102CF0008AE796E00E94380B109252061092510615
:102D000065E073E0CE0101960E94420BBE016F5F49
:102D10007F4F80E00E940D09CE0101960E94370985
:102D200061E173E0CE0101960E94420BBE016F5F2C
:102D30007F4F81E00E942209CE0101960E9437094F
:102D40006CED75E080E090E00E94BE0239CD113458
:102D500009F0CECE6CE771E08AE796E00E94380B6E
:102D600081E08093300610922D0610923B0698CC9D
:102D700060E082E00E94270260E08EE00E9427026D
:102D800061E09CCC8C30910509F4B8C10D9709F035
:102D9000ABCC60E082E00E94270260E08EE00E94FF
:102DA00027020E94D10864E573E0CE0101960E94DB
:102DB000420BBE016F5F7F4F80E00E942209CE016F
:102DC00001960E94370961E173E0CE0101960E94ED
:102DD000420BBE016F5F7F4F81E00E942209CE014E
:102DE00001960E9437096CED75E080E090E00E944A
:102DF000BE021092530610925206109251060E9483
:102E0000530B72CC0E94F0022B013C0180917106A1
:102E100090917206A0917306B0917406930182019D
:102E2000081B190B2A0B3B0BD901C80180906D06BA
:102E300090906E06A0906F06B09070068815990568
:102E4000AA05BB0508F08CC0409171045091720432
:102E5000609173047091740493018201041B150B3B
:102E6000260B370BB901A801493C510561057105D5
:102E700008F473C0881A990AAA0ABB0AC501B401EA
:102E800028EE33E040E050E00E94281C69017A01FE
:102E9000C501B40120E83EEE46E350E00E94281C44
:102EA000288B398B4A8B5B8BC701B60120E13EE052
:102EB00040E050E00E94281C2CE330E040E050E06D
:102EC0000E94281C49015A011901C701B6012CE3CF
:102ED00030E040E050E00E94281C6B017C018B0137
:102EE00080E00E94DC088BE193E00E94B909288908
:102EF00039892A30310524F486E292E00E94B9092A
:102F0000688979898A899B890E9494098DE992E070
:102F10000E94B9093AE02316310424F486E292E0D3
:102F20000E94B909C501B4010E9494098DE992E09B
:102F30000E94B9090A30110524F486E292E00E9449
:102F4000B909C701B6010E949409409271045092D8
:102F5000720460927304709274040E94BE09C4CB20
:102F60001092530660E082E00E94270260E08EE04B
:102F70000E9427020E94D10880E00E94DC0882E2C1
:102F800093E00E94B90981E00E94DC0880E393E0AD
:102F90000E94B90966E373E08EE794E00E94870A15
:102FA0000E94F00260937506709376068093770610
:102FB000909378068CE090E09093520680935106AF
:102FC00093CB80916006882309F452C06CE573E0CE
:102FD000CE0101960E94420BBE016F5F7F4F80E0E1
:102FE0000E940D09CE0101960E94370969E673E03F
:102FF000CE0101960E94420BBE016F5F7F4F81E0C0
:103000000E942209CE0101960E9437096091600654
:1030100070E090E080E04AE00E944E0968EE73E0C4
:1030200080E090E00E94BE02809160068150809313
:10303000600680918506882321F20E94F0020091AB
:103040008106109182062091830630918406601BD0
:10305000710B820B930B6C3871058105910508F497
:10306000B0CF60E083E00E94270210928506A9CFCE
:1030700083E0809360060E94D10880E00E94DC0813
:1030800083E793E00E94B90981E00E94DC0882E8AE
:1030900093E00E94B9090E9474048134E1F70E9410
:1030A000E60365E973E0CE0101960E94420BBE0182
:1030B0006F5F7F4F80E00E940D09CE0101960E9454
:1030C000370960E671E0CE0101960E94420BBE0115
:1030D0006F5F7F4F81E00E942209CE0101960E941E
:1030E000370985E090E090935206809351066CE793
:1030F00071E08AE796E00E94380BF6CA0E94F0025F
:103100000091750610917606209177063091780629
:10311000601B710B820B930B613D7740810591051C
:1031200008F4E2CA64EA73E08EE794E00E94870A3A
:103130001092530660E082E00E94270260E08EE079
:103140000E94270258CE8AE796E00C94370966273A
:1031500077270C9401191F93FC0199278827BC013C
:10316000E89411911032E9F3193010F01E30C8F3D1
:103170001B3251F01D3249F4689406C00E94D218E7
:10318000610F711D811D911D119110531A30B0F303
:103190003EF490958095709561957F4F8F4F9F4F2E
:1031A0001F910895592F482F372F262F660F771F0D
:1031B000881F991F660F771F881F991F620F731F43
:1031C000841F951F660F771F881F991F0895BB27BF
:1031D000FB015527AA27880F991FAA1FA41710F0D3
:1031E000A41B83955051B9F7A05DAA3308F0A95DDF
:1031F000A193009779F7B111B1931192CB010C947F
:10320000721AB0E0A0E0E7E0F9E10C94F71B5C0172
:103210007B016115710519F0DB018D939C9385018C
:103220000F5F1F4FF501D0818D2F90E00E94511A42
:103230006C01892BB9F5DD32B9F50F5F1F4FD50150
:103240001196DC91C1E05801F1E0AF1AB10843E0FA
:1032500050E060E770E0C5010E945A1A892B69F5B9
:10326000680182E0C80ED11C45E050E06BE670E0DA
:10327000C6010E945A1A892B21F4680197E0C90EF1
:10328000D11CE114F10419F0D701CD92DC9260E079
:1032900070E080E89FEFC111FFC060E070E080E85F
:1032A0009FE7FAC05801BBCFDB3229F485010E5FDE
:1032B0001F4FF501D181C0E0C6CF43E050E068E682
:1032C00070E0C5010E945A1A892BE9F0F80110E05C
:1032D00000E020E030E0A9015F01B0ED8B2E8D0E03
:1032E00089E08815C8F19C2E689491F88C2F88701D
:1032F000C2FF16C0811102C00F5F1F4F3196D5016A
:10330000DC91C92DE9CFE114F10429F00E5F1F4FC4
:10331000F7011183008360E070E080EC9FE7BCC0A0
:10332000882311F001501109A5E0B0E00E94DE1BD6
:103330009B01AC01220F331F441F551F280D311D67
:10334000411D511D283999E93907490799E1590764
:10335000A8F2C6609C2ED2CFAEEF8A1206C0C3FD83
:103360003CC09C2E689493F8C9CFDF7DD534A9F575
:1033700080818D3239F4C061DF011296818162E073
:1033800070E006C0DF018B32C1F3119661E070E09E
:1033900080535D01A61AB70A8A30F8F4E0E8CE1629
:1033A000ECE0DE065CF4B601660F771F660F771F50
:1033B000C60ED71ECC0CDD1CC80ED11C5D01FFEF64
:1033C000AF1ABF0A8C9180538A30A8F1C4FF03C0A2
:1033D000D194C194D1080C0D1D1DC1FF09C0E11489
:1033E000F10431F081E0A81AB108D701AD92BC9286
:1033F000CA01B9010E94871AC370C33009F49058FA
:103400004B015C0120E030E0A9010E94821A882370
:1034100009F440C0CFE9D0E017FF05C01195019530
:103420001109C7E8D0E06E01B8E1CB1AD10880E2FB
:10343000E82EF12C0FC0D501B1CFFE0125913591B9
:10344000459154910E191F09C501B4010E94E81A53
:103450004B015C01D501C4010E151F0574F72497BB
:10346000F594E794CC16DD06A9F78A2F880F8B2FE9
:10347000881F8F3F49F020E030E0A901C501B40169
:103480000E94821A811106C082E290E0909389071F
:1034900080938807C501B401CDB7DEB7ECE00C948A
:1034A000131C91110C94551B803219F089508550D2
:1034B000C8F70895FB01DC014150504088F08D9120
:1034C00081341CF08B350CF4805E659161341CF006
:1034D0006B350CF4605E861B611171F3990B0895D6
:1034E000881BFCCFDC01FC01672F71917723E1F78A
:1034F000329704C07C916D9370836291AE17BF07C1
:10350000C8F308950E94C41A08F481E00895E8946D
:1035100009C097FB3EF490958095709561957F4F1B
:103520008F4F9F4F9923A9F0F92F96E9BB279395C9
:10353000F695879577956795B795F111F8CFFAF4D9
:10354000BB0F11F460FF1BC06F5F7F4F8F4F9F4F0A
:1035500016C0882311F096E911C0772321F09EE868
:10356000872F762F05C0662371F096E8862F70E0CE
:1035700060E02AF09A95660F771F881FDAF7880FA8
:103580009695879597F90895990F0008550FAA0BFE
:10359000E0E8FEEF16161706E807F907C0F0121666
:1035A0001306E407F50798F0621B730B840B950B69
:1035B00039F40A2661F0232B242B252B21F40895BE
:1035C0000A2609F4A140A6958FEF811D811D08955B
:1035D0000E94FB1A0C946F1B0E94611B38F00E9422
:1035E000681B20F0952311F00C94581B0C945E1B63
:1035F00011240C94A31B0E94801B70F3959FC1F3B0
:10360000950F50E0551F629FF001729FBB27F00D90
:10361000B11D639FAA27F00DB11DAA1F649F6627E5
:10362000B00DA11D661F829F2227B00DA11D621F34
:10363000739FB00DA11D621F839FA00D611D221FEE
:10364000749F3327A00D611D231F849F600D211DD2
:10365000822F762F6A2F11249F5750409AF0F1F055
:1036600088234AF0EE0FFF1FBB1F661F771F881FBE
:1036700091505040A9F79E3F510580F00C94581B83
:103680000C94A31B5F3FE4F3983ED4F386957795A3
:103690006795B795F795E7959F5FC1F7FE2B880F64
:1036A000911D9695879597F90895992788270895EC
:1036B00097F99F6780E870E060E008959FEF80ECE5
:1036C000089500240A941616170618060906089588
:1036D00000240A9412161306140605060895092EEE
:1036E0000394000C11F4882352F0BB0F40F4BF2B5D
:1036F00011F460FF04C06F5F7F4F8F4F9F4F08959D
:1037000057FD9058440F551F59F05F3F71F0479592
:10371000880F97FB991F61F09F3F79F08795089577
:10372000121613061406551FF2CF4695F1DF08C096
:10373000161617061806991FF1CF869571056105B3
:1037400008940895E894BB2766277727CB0197F95B
:103750000895F999FECF92BD81BDF89A992780B559
:103760000895262FF999FECF1FBA92BD81BD20BDC5
:103770000FB6F894FA9AF99A0FBE01960895052E9D
:1037800097FB1EF400940E94D61B57FD07D00E94A1
:10379000281C07FC03D04EF40C94D61B5095409582
:1037A000309521953F4F4F4F5F4F089590958095ED
:1037B000709561957F4F8F4F9F4F08950E944A1CCF
:1037C000A59F900DB49F900DA49F800D911D112475
:1037D0000895B7FF0C94DE1B0E94DE1B821B930B27
:1037E00008952F923F924F925F926F927F928F92A5
:1037F0009F92AF92BF92CF92DF92EF92FF920F9380
:103800001F93CF93DF93CDB7DEB7CA1BDB0B0FB689
:10381000F894DEBF0FBECDBF09942A883988488846
:103820005F846E847D848C849B84AA84B984C884DC
:10383000DF80EE80FD800C811B81AA81B981CE0FD3
:10384000D11D0FB6F894DEBF0FBECDBFED010895B8
:10385000A1E21A2EAA1BBB1BFD010DC0AA1FBB1F94
:10386000EE1FFF1FA217B307E407F50720F0A21B06
:10387000B30BE40BF50B661F771F881F991F1A9473
:1038800069F760957095809590959B01AC01BD019D
:10389000CF010895A29FB001B39FC001A39F700DF7
:1038A000811D1124911DB29F700D811D1124911D48
:1038B00008955058BB27AA270E94711C0C946F1BB7
:1038C0000E94611B38F00E94681B20F039F49F3F72
:1038D00019F426F40C945E1B0EF4E095E7FB0C94AF
:1038E000581BE92F0E94801B58F3BA176207730711
:1038F0008407950720F079F4A6F50C94A21B0EF42A
:10390000E0950B2EBA2FA02D0B01B90190010C01EF
:10391000CA01A0011124FF27591B99F0593F50F407
:10392000503E68F11A16F040A22F232F342F44275F
:10393000585FF3CF469537952795A795F040539557
:10394000C9F77EF41F16BA0B620B730B840BBAF027
:103950009150A1F0FF0FBB1F661F771F881FC2F792
:103960000EC0BA0F621F731F841F48F487957795A6
:103970006795B795F7959E3F08F0B0CF9395880F60
:1039800008F09927EE0F9795879508950E94DA1C05
:103990000C946F1B0E94681B58F00E94611B40F042
:1039A00029F45F3F29F00C94581B51110C94A31B70
:1039B0000C945E1B0E94801B68F39923B1F355237E
:1039C00091F3951B550BBB27AA2762177307840732
:1039D00038F09F5F5F4F220F331F441FAA1FA9F3C8
:1039E00035D00E2E3AF0E0E832D091505040E695B6
:1039F000001CCAF72BD0FE2F29D0660F771F881F17
:103A0000BB1F261737074807AB07B0E809F0BB0B09
:103A1000802DBF01FF2793585F4F3AF09E3F51051D
:103A200078F00C94581B0C94A31B5F3FE4F3983E72
:103A3000D4F3869577956795B795F7959F5FC9F706
:103A4000880F911D9695879597F90895E1E0660F87
:103A5000771F881FBB1F621773078407BA0720F000
:103A6000621B730B840BBA0BEE1F88F7E095089569
:103A70000E94881B88F09F5798F0B92F9927B7515B
:103A8000B0F0E1F0660F771F881F991F1AF0BA9502
:103A9000C9F714C0B13091F00E94A21BB1E00895A3
:103AA0000C94A21B672F782F8827B85F39F0B93F95
:103AB000CCF3869577956795B395D9F73EF49095B5
:103AC0008095709561957F4F8F4F9F4F08950E940D
:103AD000C41A08F48FEF08950E94C41A880B990B3A
:103AE0000895DB018F939F930E94DE1BBF91AF91DE
:103AF000A29F800D911DA39F900DB29F900D112448
:103B00000895991B79E004C0991F961708F0961B39
:103B1000881F7A95C9F780950895EE0FFF1F0590CD
:103B2000F491E02D09940F931F93CF93DF9382308C
:103B3000910510F482E090E0E0918C07F0918D0700
:103B400030E020E0B0E0A0E0309799F42115310595
:103B500009F44AC0281B390B24303105D8F58A8175
:103B60009B816115710589F1FB0193838283FE01BD
:103B700011C0408151810281138148175907E0F03B
:103B80004817590799F4109761F012960C93129701
:103B900013961C933296CF01DF91CF911F910F9115
:103BA000089500938C0710938D07F4CF21153105EC
:103BB00051F04217530738F0A901DB019A01BD010A
:103BC000DF01F801C1CFEF01F9CF90938D0780930A
:103BD0008C07CDCFFE01E20FF31F8193919322500A
:103BE000310939832883D7CF20918A0730918B07F9
:103BF000232B41F420911A0130911B0130938B0744
:103C000020938A072091180130911901211531055F
:103C100041F42DB73EB740911C0150911D01241B6A
:103C2000350BE0918A07F0918B07E217F307A0F4B8
:103C30002E1B3F0B2817390778F0AC014E5F5F4F02
:103C40002417350748F04E0F5F1F50938B074093A2
:103C50008A07819391939FCFF0E0E0E09CCFCF93D0
:103C6000DF930097E9F0FC01329713821282A09152
:103C70008C07B0918D07ED0130E020E01097A1F4A2
:103C800020813181820F931F20918A0730918B0709
:103C90002817390709F061C0F0938B07E0938A0772
:103CA000DF91CF910895EA01CE17DF07E8F54A8149
:103CB0005B819E0141155105B1F7E901FB83EA8360
:103CC00049915991C40FD51FEC17FD0761F480810C
:103CD00091810296840F951FE901998388838281DF
:103CE00093819B838A83F0E0E0E012968D919C9112
:103CF00013970097B9F52D913C911197CD0102963C
:103D0000820F931F20918A0730918B07281739075C
:103D100039F6309751F510928D0710928C07B093B9
:103D20008B07A0938A07BCCFD383C2834081518184
:103D3000840F951FC817D90761F44E5F5F4F8881C4
:103D40009981480F591F518340838A819B819383B6
:103D500082832115310509F0B0CFF0938D07E093F0
:103D60008C079ECFFD01DC01C0CF13821282D7CF1A
:103D7000B0E0A0E0EEEBFEE10C94F31B8C010097A9
:103D800051F4CB010E94931D8C01C801CDB7DEB761
:103D9000E0E10C940F1CFC01E60FF71F9C01225080
:103DA0003109E217F30708F49DC0D901CD91DC91E8
:103DB0001197C617D70798F0C530D10530F3CE015B
:103DC00004978617970708F3C61BD70B2297C19352
:103DD000D1936D937C93CF010E942F1ED6CF5B01B0
:103DE000AC1ABD0A4C018C0E9D1EA0918C07B0919F
:103DF0008D07512C412CF12CE12C109731F580913D
:103E00008A0790918B078815990509F05CC04616C2
:103E1000570608F058C08091180190911901009739
:103E200041F48DB79EB740911C0150911D01841B38
:103E3000950BE817F90708F055C0F0938B07E0934E
:103E40008A07F90171836083A0CF8D919C911197AE
:103E500012966C90129713967C901397A815B9053B
:103E600059F56C0142E0C40ED11CCA14DB0420F1E8
:103E7000AC014A195B09DA011296159780F062824B
:103E8000738251834083D9016D937C93E114F104D3
:103E900071F0D7011396FC93EE93129776CF22968A
:103EA0008C0F9D1FF90191838083F301EFCFF09375
:103EB0008D07E0938C0769CF4816590608F42C014A
:103EC0007D01D3019ACFCB010E94931D7C01009705
:103ED00049F0AE01B8010E94751FC8010E942F1E53
:103EE000870153CF10E000E050CFFB01DC0102C09E
:103EF00001900D9241505040D8F70895FB01DC012C
:103F000001900D920020E1F7089510E0C0E8D0E0A4
:103F100004C0FE010E948D1D2196C138D107C9F74A
:043F2000F894FFCF43
:103F24000A0B0C0D06070809313233413435364289
:103F3400373839432E30234400008E0780000000B8
:103F4400400014005400000000005D06BD05EA05B1
:103F5400AA061B06F9050D060000000087075A078C
:103F64009E0830075307400731070000000031095D
:103F7400BD059E089D08000000009502550224021C
:103F84004D6173733A20006E616E00696E66006F56
:103F9400766600206720202020000D0A005B315D3A
:103FA4005365742054696D65005B325D43686563D5
:103FB4006B207363616C650053797374656D207352
:103FC40074617274696E672E2E2E00537973746552
:103FD4006D007374617274696E67210054696D6554
:103FE4006F75742C20636865636B204858373131D2
:103FF40020776972696E6720616E642070696E73E0
:104004002E004858373131204572726F72210043B7
:104014006865636B20776972696E67004858373149
:104024003120696E697469616C697A6174696F6E53
:1040340020636F6D706C6574652E00536574204841
:104044006F7572733A0030005B315D2043616C69B7
:104054006272617465005B325D20536574207A6519
:10406400726F00546F67676C652056616C76653FAC
:1040740000413A59657320443A4261636B005661CA
:104084006C766520434C4F534544210056616C7651
:1040940065204F50454E45442100202020202020FB
:1040A4002020202020202020202000536574204D33
:1040B400696E733A0053657420536563733A004222
:1040C4006567696E2070726F636573733F00682063
:1040D400006D20005374617274696E6720696E2EDE
:1040E4002E2E00412D20746F207363616C65207A3D
:1040F40065726F003C43757272656E742073636100
:104104006C653E0050726F63657373696E672E2E23
:104114002E005363616C65200043616C69627261B7
:10412400746564210043616C6962726174696F6EC5
:104134000043616E63656C6564210054696D653A82
:10414400200054696D6520526561636865642100CF
:10415400446F6E652E0054696D65722046696E6900
:10416400736865642E2057616974696E67203273C1
:104174002E2E2E0050726F636573730052656D6F3F
:104184007665206C6F616473004F6E207363616C9D
:10419400652000506C616365206E6F7468696E679A
:1041A4002E0050726573732027412720746F20748A
:1041B4006172652E004E6F7720706C616365206BB1
:1041C4006E6F770052657475726E696E6720746FD6
:0641D400204D656E750030
:00000001FF
